{
  "contractName": "CrowdlinkReferral",
  "abi": [
    {
      "anonymous": false,
      "inputs": [
        {
          "indexed": false,
          "internalType": "uint256",
          "name": "date",
          "type": "uint256"
        },
        {
          "indexed": false,
          "internalType": "string",
          "name": "website",
          "type": "string"
        },
        {
          "indexed": false,
          "internalType": "address",
          "name": "owner",
          "type": "address"
        },
        {
          "indexed": false,
          "internalType": "uint256",
          "name": "budget",
          "type": "uint256"
        },
        {
          "indexed": false,
          "internalType": "uint256",
          "name": "reward",
          "type": "uint256"
        }
      ],
      "name": "NewCampaignOpen",
      "type": "event"
    },
    {
      "anonymous": false,
      "inputs": [
        {
          "indexed": true,
          "internalType": "address",
          "name": "previousOwner",
          "type": "address"
        },
        {
          "indexed": true,
          "internalType": "address",
          "name": "newOwner",
          "type": "address"
        }
      ],
      "name": "OwnershipTransferred",
      "type": "event"
    },
    {
      "constant": true,
      "inputs": [
        {
          "internalType": "address",
          "name": "",
          "type": "address"
        }
      ],
      "name": "account_balance",
      "outputs": [
        {
          "internalType": "uint256",
          "name": "",
          "type": "uint256"
        }
      ],
      "payable": false,
      "stateMutability": "view",
      "type": "function"
    },
    {
      "constant": true,
      "inputs": [
        {
          "internalType": "string",
          "name": "",
          "type": "string"
        }
      ],
      "name": "influencers",
      "outputs": [
        {
          "internalType": "address",
          "name": "addr",
          "type": "address"
        },
        {
          "internalType": "address",
          "name": "owner_address",
          "type": "address"
        },
        {
          "internalType": "string",
          "name": "owner_website",
          "type": "string"
        },
        {
          "internalType": "uint256",
          "name": "reward",
          "type": "uint256"
        },
        {
          "internalType": "string",
          "name": "referral_link",
          "type": "string"
        }
      ],
      "payable": false,
      "stateMutability": "view",
      "type": "function"
    },
    {
      "constant": true,
      "inputs": [],
      "name": "isOwner",
      "outputs": [
        {
          "internalType": "bool",
          "name": "",
          "type": "bool"
        }
      ],
      "payable": false,
      "stateMutability": "view",
      "type": "function"
    },
    {
      "constant": true,
      "inputs": [],
      "name": "owner",
      "outputs": [
        {
          "internalType": "address",
          "name": "",
          "type": "address"
        }
      ],
      "payable": false,
      "stateMutability": "view",
      "type": "function"
    },
    {
      "constant": true,
      "inputs": [
        {
          "internalType": "address",
          "name": "",
          "type": "address"
        },
        {
          "internalType": "uint256",
          "name": "",
          "type": "uint256"
        }
      ],
      "name": "referral_campaign_collection",
      "outputs": [
        {
          "internalType": "string",
          "name": "website",
          "type": "string"
        },
        {
          "internalType": "uint256",
          "name": "campaignBudget",
          "type": "uint256"
        },
        {
          "internalType": "uint256",
          "name": "campaignReward",
          "type": "uint256"
        },
        {
          "internalType": "bool",
          "name": "isActive",
          "type": "bool"
        },
        {
          "internalType": "uint256",
          "name": "remainingBudget",
          "type": "uint256"
        }
      ],
      "payable": false,
      "stateMutability": "view",
      "type": "function"
    },
    {
      "constant": false,
      "inputs": [],
      "name": "renounceOwnership",
      "outputs": [],
      "payable": false,
      "stateMutability": "nonpayable",
      "type": "function"
    },
    {
      "constant": false,
      "inputs": [
        {
          "internalType": "address",
          "name": "newOwner",
          "type": "address"
        }
      ],
      "name": "transferOwnership",
      "outputs": [],
      "payable": false,
      "stateMutability": "nonpayable",
      "type": "function"
    },
    {
      "constant": false,
      "inputs": [
        {
          "internalType": "string",
          "name": "_website",
          "type": "string"
        },
        {
          "internalType": "string",
          "name": "_referral_link",
          "type": "string"
        },
        {
          "internalType": "address",
          "name": "_owner",
          "type": "address"
        }
      ],
      "name": "addInfluencer",
      "outputs": [
        {
          "internalType": "bool",
          "name": "",
          "type": "bool"
        }
      ],
      "payable": false,
      "stateMutability": "nonpayable",
      "type": "function"
    },
    {
      "constant": false,
      "inputs": [
        {
          "internalType": "uint256",
          "name": "_campaignBudget",
          "type": "uint256"
        },
        {
          "internalType": "uint256",
          "name": "_campaignReward",
          "type": "uint256"
        },
        {
          "internalType": "string",
          "name": "_website",
          "type": "string"
        }
      ],
      "name": "openReferralCampaign",
      "outputs": [
        {
          "internalType": "uint256",
          "name": "",
          "type": "uint256"
        }
      ],
      "payable": true,
      "stateMutability": "payable",
      "type": "function"
    },
    {
      "constant": true,
      "inputs": [
        {
          "internalType": "string",
          "name": "_link",
          "type": "string"
        }
      ],
      "name": "getBalanceOfInfluencer",
      "outputs": [
        {
          "internalType": "uint256",
          "name": "",
          "type": "uint256"
        }
      ],
      "payable": false,
      "stateMutability": "view",
      "type": "function"
    },
    {
      "constant": false,
      "inputs": [
        {
          "internalType": "string",
          "name": "_referral_link",
          "type": "string"
        },
        {
          "internalType": "string",
          "name": "_website",
          "type": "string"
        },
        {
          "internalType": "address",
          "name": "_from",
          "type": "address"
        },
        {
          "internalType": "address",
          "name": "_to",
          "type": "address"
        }
      ],
      "name": "forwardRewards",
      "outputs": [
        {
          "internalType": "uint256",
          "name": "_campaign_owner_balance",
          "type": "uint256"
        },
        {
          "internalType": "uint256",
          "name": "_influencer_balance",
          "type": "uint256"
        }
      ],
      "payable": false,
      "stateMutability": "nonpayable",
      "type": "function"
    },
    {
      "constant": false,
      "inputs": [
        {
          "internalType": "string",
          "name": "_website",
          "type": "string"
        }
      ],
      "name": "withdrawFromCampaign",
      "outputs": [
        {
          "internalType": "uint256",
          "name": "",
          "type": "uint256"
        }
      ],
      "payable": true,
      "stateMutability": "payable",
      "type": "function"
    },
    {
      "constant": true,
      "inputs": [
        {
          "internalType": "address",
          "name": "_account_address",
          "type": "address"
        }
      ],
      "name": "lookupCampaignReferralsCollectionLength",
      "outputs": [
        {
          "internalType": "uint256",
          "name": "",
          "type": "uint256"
        }
      ],
      "payable": false,
      "stateMutability": "view",
      "type": "function"
    },
    {
      "constant": true,
      "inputs": [
        {
          "internalType": "address",
          "name": "_account_address",
          "type": "address"
        },
        {
          "internalType": "uint256",
          "name": "_index",
          "type": "uint256"
        }
      ],
      "name": "lookUpCampaignReferral",
      "outputs": [
        {
          "internalType": "string",
          "name": "",
          "type": "string"
        },
        {
          "internalType": "uint256",
          "name": "",
          "type": "uint256"
        },
        {
          "internalType": "uint256",
          "name": "",
          "type": "uint256"
        },
        {
          "internalType": "bool",
          "name": "",
          "type": "bool"
        },
        {
          "internalType": "address[]",
          "name": "",
          "type": "address[]"
        }
      ],
      "payable": false,
      "stateMutability": "view",
      "type": "function"
    },
    {
      "constant": true,
      "inputs": [
        {
          "internalType": "address",
          "name": "_address",
          "type": "address"
        },
        {
          "internalType": "string",
          "name": "_website",
          "type": "string"
        }
      ],
      "name": "helper_selectReferralCampaign",
      "outputs": [
        {
          "internalType": "uint256",
          "name": "",
          "type": "uint256"
        },
        {
          "internalType": "bool",
          "name": "",
          "type": "bool"
        }
      ],
      "payable": false,
      "stateMutability": "view",
      "type": "function"
    },
    {
      "constant": true,
      "inputs": [
        {
          "internalType": "string",
          "name": "a",
          "type": "string"
        },
        {
          "internalType": "string",
          "name": "b",
          "type": "string"
        }
      ],
      "name": "helper_compareStrings",
      "outputs": [
        {
          "internalType": "bool",
          "name": "",
          "type": "bool"
        }
      ],
      "payable": false,
      "stateMutability": "pure",
      "type": "function"
    }
  ],
  "bytecode": "0x60806040526100126100d260201b60201c565b6000806101000a81548173ffffffffffffffffffffffffffffffffffffffff021916908373ffffffffffffffffffffffffffffffffffffffff1602179055506000809054906101000a900473ffffffffffffffffffffffffffffffffffffffff1673ffffffffffffffffffffffffffffffffffffffff16600073ffffffffffffffffffffffffffffffffffffffff167f8be0079c531659141344cd1fd0a4f28419497f9722a3daafe3b4186f6b6457e060405160405180910390a36100da565b600033905090565b61366080620000ea6000396000f3fe6080604052600436106100f35760003560e01c80639729e1f61161008a578063cf1fa45d11610059578063cf1fa45d14610c34578063dc63775f14610dcb578063eb994b4914610e30578063f2fde38b14610eff576100f3565b80639729e1f6146108c3578063b7bc4afc146109a6578063b9efd93c14610a0b578063ba13c92414610b40576100f3565b8063715018a6116100c6578063715018a61461074a578063827373a2146107615780638da5cb5b1461083d5780638f32d59b14610894576100f3565b80635c0693c8146100f857806364c15317146102b25780636995beb3146104295780636f14fbed14610643575b600080fd5b34801561010457600080fd5b506102956004803603608081101561011b57600080fd5b810190808035906020019064010000000081111561013857600080fd5b82018360208201111561014a57600080fd5b8035906020019184600183028401116401000000008311171561016c57600080fd5b91908080601f016020809104026020016040519081016040528093929190818152602001838380828437600081840152601f19601f820116905080830192505050505050509192919290803590602001906401000000008111156101cf57600080fd5b8201836020820111156101e157600080fd5b8035906020019184600183028401116401000000008311171561020357600080fd5b91908080601f016020809104026020016040519081016040528093929190818152602001838380828437600081840152601f19601f820116905080830192505050505050509192919290803573ffffffffffffffffffffffffffffffffffffffff169060200190929190803573ffffffffffffffffffffffffffffffffffffffff169060200190929190505050610f50565b604051808381526020018281526020019250505060405180910390f35b3480156102be57600080fd5b5061040f600480360360408110156102d557600080fd5b81019080803590602001906401000000008111156102f257600080fd5b82018360208201111561030457600080fd5b8035906020019184600183028401116401000000008311171561032657600080fd5b91908080601f016020809104026020016040519081016040528093929190818152602001838380828437600081840152601f19601f8201169050808301925050505050505091929192908035906020019064010000000081111561038957600080fd5b82018360208201111561039b57600080fd5b803590602001918460018302840111640100000000831117156103bd57600080fd5b91908080601f016020809104026020016040519081016040528093929190818152602001838380828437600081840152601f19601f820116905080830192505050505050509192919290505050611733565b604051808215151515815260200191505060405180910390f35b34801561043557600080fd5b506104ef6004803603602081101561044c57600080fd5b810190808035906020019064010000000081111561046957600080fd5b82018360208201111561047b57600080fd5b8035906020019184600183028401116401000000008311171561049d57600080fd5b91908080601f016020809104026020016040519081016040528093929190818152602001838380828437600081840152601f19601f820116905080830192505050505050509192919290505050611822565b604051808673ffffffffffffffffffffffffffffffffffffffff1673ffffffffffffffffffffffffffffffffffffffff1681526020018573ffffffffffffffffffffffffffffffffffffffff1673ffffffffffffffffffffffffffffffffffffffff1681526020018060200184815260200180602001838103835286818151815260200191508051906020019080838360005b8381101561059d578082015181840152602081019050610582565b50505050905090810190601f1680156105ca5780820380516001836020036101000a031916815260200191505b50838103825284818151815260200191508051906020019080838360005b838110156106035780820151818401526020810190506105e8565b50505050905090810190601f1680156106305780820380516001836020036101000a031916815260200191505b5097505050505050505060405180910390f35b34801561064f57600080fd5b506107296004803603604081101561066657600080fd5b81019080803573ffffffffffffffffffffffffffffffffffffffff169060200190929190803590602001906401000000008111156106a357600080fd5b8201836020820111156106b557600080fd5b803590602001918460018302840111640100000000831117156106d757600080fd5b91908080601f016020809104026020016040519081016040528093929190818152602001838380828437600081840152601f19601f8201169050808301925050505050505091929192905050506119de565b60405180838152602001821515151581526020019250505060405180910390f35b34801561075657600080fd5b5061075f611b6f565b005b34801561076d57600080fd5b506108276004803603602081101561078457600080fd5b81019080803590602001906401000000008111156107a157600080fd5b8201836020820111156107b357600080fd5b803590602001918460018302840111640100000000831117156107d557600080fd5b91908080601f016020809104026020016040519081016040528093929190818152602001838380828437600081840152601f19601f820116905080830192505050505050509192919290505050611ca8565b6040518082815260200191505060405180910390f35b34801561084957600080fd5b50610852611e1d565b604051808273ffffffffffffffffffffffffffffffffffffffff1673ffffffffffffffffffffffffffffffffffffffff16815260200191505060405180910390f35b3480156108a057600080fd5b506108a9611e46565b604051808215151515815260200191505060405180910390f35b610990600480360360608110156108d957600080fd5b8101908080359060200190929190803590602001909291908035906020019064010000000081111561090a57600080fd5b82018360208201111561091c57600080fd5b8035906020019184600183028401116401000000008311171561093e57600080fd5b91908080601f016020809104026020016040519081016040528093929190818152602001838380828437600081840152601f19601f820116905080830192505050505050509192919290505050611ea4565b6040518082815260200191505060405180910390f35b3480156109b257600080fd5b506109f5600480360360208110156109c957600080fd5b81019080803573ffffffffffffffffffffffffffffffffffffffff16906020019092919050505061222a565b6040518082815260200191505060405180910390f35b348015610a1757600080fd5b50610a6460048036036040811015610a2e57600080fd5b81019080803573ffffffffffffffffffffffffffffffffffffffff16906020019092919080359060200190929190505050612242565b60405180806020018681526020018581526020018415151515815260200180602001838103835288818151815260200191508051906020019080838360005b83811015610abe578082015181840152602081019050610aa3565b50505050905090810190601f168015610aeb5780820380516001836020036101000a031916815260200191505b50838103825284818151815260200191508051906020019060200280838360005b83811015610b27578082015181840152602081019050610b0c565b5050505090500197505050505050505060405180910390f35b348015610b4c57600080fd5b50610b9960048036036040811015610b6357600080fd5b81019080803573ffffffffffffffffffffffffffffffffffffffff16906020019092919080359060200190929190505050612741565b604051808060200186815260200185815260200184151515158152602001838152602001828103825287818151815260200191508051906020019080838360005b83811015610bf5578082015181840152602081019050610bda565b50505050905090810190601f168015610c225780820380516001836020036101000a031916815260200191505b50965050505050505060405180910390f35b348015610c4057600080fd5b50610db160048036036060811015610c5757600080fd5b8101908080359060200190640100000000811115610c7457600080fd5b820183602082011115610c8657600080fd5b80359060200191846001830284011164010000000083111715610ca857600080fd5b91908080601f016020809104026020016040519081016040528093929190818152602001838380828437600081840152601f19601f82011690508083019250505050505050919291929080359060200190640100000000811115610d0b57600080fd5b820183602082011115610d1d57600080fd5b80359060200191846001830284011164010000000083111715610d3f57600080fd5b91908080601f016020809104026020016040519081016040528093929190818152602001838380828437600081840152601f19601f820116905080830192505050505050509192919290803573ffffffffffffffffffffffffffffffffffffffff169060200190929190505050612836565b604051808215151515815260200191505060405180910390f35b348015610dd757600080fd5b50610e1a60048036036020811015610dee57600080fd5b81019080803573ffffffffffffffffffffffffffffffffffffffff169060200190929190505050612b35565b6040518082815260200191505060405180910390f35b610ee960048036036020811015610e4657600080fd5b8101908080359060200190640100000000811115610e6357600080fd5b820183602082011115610e7557600080fd5b80359060200191846001830284011164010000000083111715610e9757600080fd5b91908080601f016020809104026020016040519081016040528093929190818152602001838380828437600081840152601f19601f820116905080830192505050505050509192919290505050612bea565b6040518082815260200191505060405180910390f35b348015610f0b57600080fd5b50610f4e60048036036020811015610f2257600080fd5b81019080803573ffffffffffffffffffffffffffffffffffffffff169060200190929190505050613015565b005b600080600080610f6086886119de565b915091506001151581151514801561102257506001886040518082805190602001908083835b60208310610fa95780518252602082019150602081019050602083039250610f86565b6001836020036101000a038019825116818451168082178552505050505050905001915050908152602001604051809103902060030154600260008873ffffffffffffffffffffffffffffffffffffffff1673ffffffffffffffffffffffffffffffffffffffff16815260200190815260200160002054115b801561109a575060011515600360008873ffffffffffffffffffffffffffffffffffffffff1673ffffffffffffffffffffffffffffffffffffffff168152602001908152602001600020838154811061107757fe5b906000526020600020906006020160040160009054906101000a900460ff161515145b80156111915750600260008773ffffffffffffffffffffffffffffffffffffffff1673ffffffffffffffffffffffffffffffffffffffff168152602001908152602001600020546001896040518082805190602001908083835b6020831061111757805182526020820191506020810190506020830392506110f4565b6001836020036101000a038019825116818451168082178552505050505050905001915050908152602001604051809103902060030154600260008973ffffffffffffffffffffffffffffffffffffffff1673ffffffffffffffffffffffffffffffffffffffff1681526020019081526020016000205403105b61119a57600080fd5b6001886040518082805190602001908083835b602083106111d057805182526020820191506020810190506020830392506111ad565b6001836020036101000a038019825116818451168082178552505050505050905001915050908152602001604051809103902060030154600360008873ffffffffffffffffffffffffffffffffffffffff1673ffffffffffffffffffffffffffffffffffffffff168152602001908152602001600020838154811061125157fe5b906000526020600020906006020160050154111561162f576113436001896040518082805190602001908083835b602083106112a2578051825260208201915060208101905060208303925061127f565b6001836020036101000a038019825116818451168082178552505050505050905001915050908152602001604051809103902060030154600360008973ffffffffffffffffffffffffffffffffffffffff1673ffffffffffffffffffffffffffffffffffffffff168152602001908152602001600020848154811061132357fe5b90600052602060002090600602016005015461309b90919063ffffffff16565b600360008873ffffffffffffffffffffffffffffffffffffffff1673ffffffffffffffffffffffffffffffffffffffff168152602001908152602001600020838154811061138d57fe5b9060005260206000209060060201600501819055506114606001896040518082805190602001908083835b602083106113db57805182526020820191506020810190506020830392506113b8565b6001836020036101000a038019825116818451168082178552505050505050905001915050908152602001604051809103902060030154600260008973ffffffffffffffffffffffffffffffffffffffff1673ffffffffffffffffffffffffffffffffffffffff1681526020019081526020016000205461309b90919063ffffffff16565b600260008873ffffffffffffffffffffffffffffffffffffffff1673ffffffffffffffffffffffffffffffffffffffff168152602001908152602001600020819055506115616001896040518082805190602001908083835b602083106114dc57805182526020820191506020810190506020830392506114b9565b6001836020036101000a038019825116818451168082178552505050505050905001915050908152602001604051809103902060030154600260008873ffffffffffffffffffffffffffffffffffffffff1673ffffffffffffffffffffffffffffffffffffffff168152602001908152602001600020546130e590919063ffffffff16565b600260008773ffffffffffffffffffffffffffffffffffffffff1673ffffffffffffffffffffffffffffffffffffffff16815260200190815260200160002081905550600260008773ffffffffffffffffffffffffffffffffffffffff1673ffffffffffffffffffffffffffffffffffffffff16815260200190815260200160002054600260008773ffffffffffffffffffffffffffffffffffffffff1673ffffffffffffffffffffffffffffffffffffffff1681526020019081526020016000205493509350505061172a565b6000600360008873ffffffffffffffffffffffffffffffffffffffff1673ffffffffffffffffffffffffffffffffffffffff168152602001908152602001600020838154811061167b57fe5b906000526020600020906006020160040160006101000a81548160ff021916908315150217905550600260008773ffffffffffffffffffffffffffffffffffffffff1673ffffffffffffffffffffffffffffffffffffffff16815260200190815260200160002054600260008773ffffffffffffffffffffffffffffffffffffffff1673ffffffffffffffffffffffffffffffffffffffff168152602001908152602001600020549350935050505b94509492505050565b6000816040516020018082805190602001908083835b6020831061176c5780518252602082019150602081019050602083039250611749565b6001836020036101000a03801982511681845116808217855250505050505090500191505060405160208183030381529060405280519060200120836040516020018082805190602001908083835b602083106117de57805182526020820191506020810190506020830392506117bb565b6001836020036101000a0380198251168184511680821785525050505050509050019150506040516020818303038152906040528051906020012014905092915050565b6001818051602081018201805184825260208301602085012081835280955050505050506000915090508060000160009054906101000a900473ffffffffffffffffffffffffffffffffffffffff16908060010160009054906101000a900473ffffffffffffffffffffffffffffffffffffffff1690806002018054600181600116156101000203166002900480601f0160208091040260200160405190810160405280929190818152602001828054600181600116156101000203166002900480156119305780601f1061190557610100808354040283529160200191611930565b820191906000526020600020905b81548152906001019060200180831161191357829003601f168201915b505050505090806003015490806004018054600181600116156101000203166002900480601f0160208091040260200160405190810160405280929190818152602001828054600181600116156101000203166002900480156119d45780601f106119a9576101008083540402835291602001916119d4565b820191906000526020600020905b8154815290600101906020018083116119b757829003601f168201915b5050505050905085565b6000806000809050600080905060008090505b600360008873ffffffffffffffffffffffffffffffffffffffff1673ffffffffffffffffffffffffffffffffffffffff16815260200190815260200160002080549050811015611b5f576060600360008973ffffffffffffffffffffffffffffffffffffffff1673ffffffffffffffffffffffffffffffffffffffff1681526020019081526020016000208281548110611a8757fe5b90600052602060002090600602016000018054600181600116156101000203166002900480601f016020809104026020016040519081016040528092919081815260200182805460018160011615610100020316600290048015611b2c5780601f10611b0157610100808354040283529160200191611b2c565b820191906000526020600020905b815481529060010190602001808311611b0f57829003601f168201915b50505050509050868051906020012081805190602001201415611b5157819350600192505b5080806001019150506119f1565b5081819350935050509250929050565b611b77611e46565b611be9576040517f08c379a00000000000000000000000000000000000000000000000000000000081526004018080602001828103825260208152602001807f4f776e61626c653a2063616c6c6572206973206e6f7420746865206f776e657281525060200191505060405180910390fd5b600073ffffffffffffffffffffffffffffffffffffffff166000809054906101000a900473ffffffffffffffffffffffffffffffffffffffff1673ffffffffffffffffffffffffffffffffffffffff167f8be0079c531659141344cd1fd0a4f28419497f9722a3daafe3b4186f6b6457e060405160405180910390a360008060006101000a81548173ffffffffffffffffffffffffffffffffffffffff021916908373ffffffffffffffffffffffffffffffffffffffff160217905550565b6000806001836040518082805190602001908083835b60208310611ce15780518252602082019150602081019050602083039250611cbe565b6001836020036101000a038019825116818451168082178552505050505050905001915050908152602001604051809103902090506060816004018054600181600116156101000203166002900480601f016020809104026020016040519081016040528092919081815260200182805460018160011615610100020316600290048015611db05780601f10611d8557610100808354040283529160200191611db0565b820191906000526020600020905b815481529060010190602001808311611d9357829003601f168201915b50505050509050611dc18185611733565b15611e115760008260000160009054906101000a900473ffffffffffffffffffffffffffffffffffffffff1690508073ffffffffffffffffffffffffffffffffffffffff16319350505050611e18565b6000925050505b919050565b60008060009054906101000a900473ffffffffffffffffffffffffffffffffffffffff16905090565b60008060009054906101000a900473ffffffffffffffffffffffffffffffffffffffff1673ffffffffffffffffffffffffffffffffffffffff16611e8861316d565b73ffffffffffffffffffffffffffffffffffffffff1614905090565b60008334148015611f345750600260003373ffffffffffffffffffffffffffffffffffffffff1673ffffffffffffffffffffffffffffffffffffffff1681526020019081526020016000205434600260003373ffffffffffffffffffffffffffffffffffffffff1673ffffffffffffffffffffffffffffffffffffffff1681526020019081526020016000205401115b611f3d57600080fd5b611f45613379565b82816000018190525084816020018181525050838160400181815250506001816080019015159081151581525050848160a0018181525050611fcf34600260003373ffffffffffffffffffffffffffffffffffffffff1673ffffffffffffffffffffffffffffffffffffffff168152602001908152602001600020546130e590919063ffffffff16565b600260003373ffffffffffffffffffffffffffffffffffffffff1673ffffffffffffffffffffffffffffffffffffffff16815260200190815260200160002081905550600360003373ffffffffffffffffffffffffffffffffffffffff1673ffffffffffffffffffffffffffffffffffffffff168152602001908152602001600020819080600181540180825580915050906001820390600052602060002090600602016000909192909190915060008201518160000190805190602001906120999291906133b1565b50602082015181600101556040820151816002015560608201518160030190805190602001906120ca929190613431565b5060808201518160040160006101000a81548160ff02191690831515021790555060a082015181600501555050507f9518f54fb4dd6826d853366a4e91cb52691887a7cf41c1ceebd830ad77dc5a09428433888860405180868152602001806020018573ffffffffffffffffffffffffffffffffffffffff1673ffffffffffffffffffffffffffffffffffffffff168152602001848152602001838152602001828103825286818151815260200191508051906020019080838360005b838110156121a2578082015181840152602081019050612187565b50505050905090810190601f1680156121cf5780820380516001836020036101000a031916815260200191505b50965050505050505060405180910390a1600260003373ffffffffffffffffffffffffffffffffffffffff1673ffffffffffffffffffffffffffffffffffffffff168152602001908152602001600020549150509392505050565b60026020528060005260406000206000915090505481565b6060600080600060606000600360008973ffffffffffffffffffffffffffffffffffffffff1673ffffffffffffffffffffffffffffffffffffffff168152602001908152602001600020878154811061229757fe5b90600052602060002090600602016001015414156122b457600080fd5b6060600360008973ffffffffffffffffffffffffffffffffffffffff1673ffffffffffffffffffffffffffffffffffffffff168152602001908152602001600020878154811061230057fe5b90600052602060002090600602016000018054600181600116156101000203166002900480601f0160208091040260200160405190810160405280929190818152602001828054600181600116156101000203166002900480156123a55780601f1061237a576101008083540402835291602001916123a5565b820191906000526020600020905b81548152906001019060200180831161238857829003601f168201915b505050505090506060600360008a73ffffffffffffffffffffffffffffffffffffffff1673ffffffffffffffffffffffffffffffffffffffff16815260200190815260200160002088815481106123f857fe5b90600052602060002090600602016003018054905060405190808252806020026020018201604052801561243b5781602001602082028038833980820191505090505b50905060008090505b600360008b73ffffffffffffffffffffffffffffffffffffffff1673ffffffffffffffffffffffffffffffffffffffff168152602001908152602001600020898154811061248e57fe5b9060005260206000209060060201600301805490508110156126075760006001600360008d73ffffffffffffffffffffffffffffffffffffffff1673ffffffffffffffffffffffffffffffffffffffff1681526020019081526020016000208b815481106124f857fe5b9060005260206000209060060201600301838154811061251457fe5b9060005260206000200160405180828054600181600116156101000203166002900480156125795780601f10612557576101008083540402835291820191612579565b820191906000526020600020905b815481529060010190602001808311612565575b5050915050908152602001604051809103902060000160009054906101000a900473ffffffffffffffffffffffffffffffffffffffff169050808383815181106125bf57fe5b602002602001019073ffffffffffffffffffffffffffffffffffffffff16908173ffffffffffffffffffffffffffffffffffffffff1681525050508080600101915050612444565b5081600360008b73ffffffffffffffffffffffffffffffffffffffff1673ffffffffffffffffffffffffffffffffffffffff168152602001908152602001600020898154811061265357fe5b906000526020600020906006020160010154600360008c73ffffffffffffffffffffffffffffffffffffffff1673ffffffffffffffffffffffffffffffffffffffff1681526020019081526020016000208a815481106126af57fe5b906000526020600020906006020160020154600360008d73ffffffffffffffffffffffffffffffffffffffff1673ffffffffffffffffffffffffffffffffffffffff1681526020019081526020016000208b8154811061270b57fe5b906000526020600020906006020160040160009054906101000a900460ff16849650965096509650965050509295509295909350565b6003602052816000526040600020818154811061275a57fe5b906000526020600020906006020160009150915050806000018054600181600116156101000203166002900480601f0160208091040260200160405190810160405280929190818152602001828054600181600116156101000203166002900480156128075780601f106127dc57610100808354040283529160200191612807565b820191906000526020600020905b8154815290600101906020018083116127ea57829003601f168201915b5050505050908060010154908060020154908060040160009054906101000a900460ff16908060050154905085565b600080600061284584876119de565b915091508015612b27576000600360008673ffffffffffffffffffffffffffffffffffffffff1673ffffffffffffffffffffffffffffffffffffffff168152602001908152602001600020838154811061289b57fe5b90600052602060002090600602016002015490506128b7613491565b33816000019073ffffffffffffffffffffffffffffffffffffffff16908173ffffffffffffffffffffffffffffffffffffffff168152505085816020019073ffffffffffffffffffffffffffffffffffffffff16908173ffffffffffffffffffffffffffffffffffffffff168152505087816040018190525081816060018181525050868160800181905250806001886040518082805190602001908083835b6020831061297a5780518252602082019150602081019050602083039250612957565b6001836020036101000a038019825116818451168082178552505050505050905001915050908152602001604051809103902060008201518160000160006101000a81548173ffffffffffffffffffffffffffffffffffffffff021916908373ffffffffffffffffffffffffffffffffffffffff16021790555060208201518160010160006101000a81548173ffffffffffffffffffffffffffffffffffffffff021916908373ffffffffffffffffffffffffffffffffffffffff1602179055506040820151816002019080519060200190612a579291906133b1565b50606082015181600301556080820151816004019080519060200190612a7e9291906133b1565b50905050600360008773ffffffffffffffffffffffffffffffffffffffff1673ffffffffffffffffffffffffffffffffffffffff1681526020019081526020016000208481548110612acc57fe5b9060005260206000209060060201600301879080600181540180825580915050906001820390600052602060002001600090919290919091509080519060200190612b189291906134ec565b50506001945050505050612b2e565b6000925050505b9392505050565b600080600360008473ffffffffffffffffffffffffffffffffffffffff1673ffffffffffffffffffffffffffffffffffffffff168152602001908152602001600020600081548110612b8357fe5b9060005260206000209060060201600101541415612ba057600080fd5b600360008373ffffffffffffffffffffffffffffffffffffffff1673ffffffffffffffffffffffffffffffffffffffff168152602001908152602001600020805490509050919050565b6000806000612bf933856119de565b9150915060011515811515148015612c6c57506000600360003373ffffffffffffffffffffffffffffffffffffffff1673ffffffffffffffffffffffffffffffffffffffff1681526020019081526020016000208381548110612c5857fe5b906000526020600020906006020160050154115b8015612cb757506000600260003373ffffffffffffffffffffffffffffffffffffffff1673ffffffffffffffffffffffffffffffffffffffff16815260200190815260200160002054115b8015612d5c5750600360003373ffffffffffffffffffffffffffffffffffffffff1673ffffffffffffffffffffffffffffffffffffffff1681526020019081526020016000208281548110612d0857fe5b906000526020600020906006020160050154600260003373ffffffffffffffffffffffffffffffffffffffff1673ffffffffffffffffffffffffffffffffffffffff16815260200190815260200160002054115b612d6557600080fd5b6000600360003373ffffffffffffffffffffffffffffffffffffffff1673ffffffffffffffffffffffffffffffffffffffff1681526020019081526020016000208381548110612db157fe5b906000526020600020906006020160040160006101000a81548160ff021916908315150217905550612e86600360003373ffffffffffffffffffffffffffffffffffffffff1673ffffffffffffffffffffffffffffffffffffffff1681526020019081526020016000208381548110612e2657fe5b906000526020600020906006020160050154600260003373ffffffffffffffffffffffffffffffffffffffff1673ffffffffffffffffffffffffffffffffffffffff1681526020019081526020016000205461309b90919063ffffffff16565b600260003373ffffffffffffffffffffffffffffffffffffffff1673ffffffffffffffffffffffffffffffffffffffff168152602001908152602001600020819055503373ffffffffffffffffffffffffffffffffffffffff166108fc600360003373ffffffffffffffffffffffffffffffffffffffff1673ffffffffffffffffffffffffffffffffffffffff1681526020019081526020016000208481548110612f2d57fe5b9060005260206000209060060201600501549081150290604051600060405180830381858888f19350505050158015612f6a573d6000803e3d6000fd5b506000600360003373ffffffffffffffffffffffffffffffffffffffff1673ffffffffffffffffffffffffffffffffffffffff1681526020019081526020016000208381548110612fb757fe5b906000526020600020906006020160050181905550600260003373ffffffffffffffffffffffffffffffffffffffff1673ffffffffffffffffffffffffffffffffffffffff1681526020019081526020016000205492505050919050565b61301d611e46565b61308f576040517f08c379a00000000000000000000000000000000000000000000000000000000081526004018080602001828103825260208152602001807f4f776e61626c653a2063616c6c6572206973206e6f7420746865206f776e657281525060200191505060405180910390fd5b61309881613175565b50565b60006130dd83836040518060400160405280601e81526020017f536166654d6174683a207375627472616374696f6e206f766572666c6f7700008152506132b9565b905092915050565b600080828401905083811015613163576040517f08c379a000000000000000000000000000000000000000000000000000000000815260040180806020018281038252601b8152602001807f536166654d6174683a206164646974696f6e206f766572666c6f77000000000081525060200191505060405180910390fd5b8091505092915050565b600033905090565b600073ffffffffffffffffffffffffffffffffffffffff168173ffffffffffffffffffffffffffffffffffffffff1614156131fb576040517f08c379a00000000000000000000000000000000000000000000000000000000081526004018080602001828103825260268152602001806136066026913960400191505060405180910390fd5b8073ffffffffffffffffffffffffffffffffffffffff166000809054906101000a900473ffffffffffffffffffffffffffffffffffffffff1673ffffffffffffffffffffffffffffffffffffffff167f8be0079c531659141344cd1fd0a4f28419497f9722a3daafe3b4186f6b6457e060405160405180910390a3806000806101000a81548173ffffffffffffffffffffffffffffffffffffffff021916908373ffffffffffffffffffffffffffffffffffffffff16021790555050565b6000838311158290613366576040517f08c379a00000000000000000000000000000000000000000000000000000000081526004018080602001828103825283818151815260200191508051906020019080838360005b8381101561332b578082015181840152602081019050613310565b50505050905090810190601f1680156133585780820380516001836020036101000a031916815260200191505b509250505060405180910390fd5b5060008385039050809150509392505050565b6040518060c0016040528060608152602001600081526020016000815260200160608152602001600015158152602001600081525090565b828054600181600116156101000203166002900490600052602060002090601f016020900481019282601f106133f257805160ff1916838001178555613420565b82800160010185558215613420579182015b8281111561341f578251825591602001919060010190613404565b5b50905061342d919061356c565b5090565b828054828255906000526020600020908101928215613480579160200282015b8281111561347f57825182908051906020019061346f9291906133b1565b5091602001919060010190613451565b5b50905061348d9190613591565b5090565b6040518060a00160405280600073ffffffffffffffffffffffffffffffffffffffff168152602001600073ffffffffffffffffffffffffffffffffffffffff1681526020016060815260200160008152602001606081525090565b828054600181600116156101000203166002900490600052602060002090601f016020900481019282601f1061352d57805160ff191683800117855561355b565b8280016001018555821561355b579182015b8281111561355a57825182559160200191906001019061353f565b5b509050613568919061356c565b5090565b61358e91905b8082111561358a576000816000905550600101613572565b5090565b90565b6135ba91905b808211156135b657600081816135ad91906135bd565b50600101613597565b5090565b90565b50805460018160011615610100020316600290046000825580601f106135e35750613602565b601f016020900490600052602060002090810190613601919061356c565b5b5056fe4f776e61626c653a206e6577206f776e657220697320746865207a65726f2061646472657373a265627a7a723158206f6bf7681839fe46acfef378ec7df17e61b66112384a862bb5d3cfbb38de8f4b64736f6c63430005100032",
  "source": "pragma solidity ^0.5.16;\nimport \"../node_modules/@openzeppelin/contracts/ownership/Ownable.sol\";\nimport \"../node_modules/@openzeppelin/contracts/math/SafeMath.sol\";\n\n\ncontract CrowdlinkReferral is Ownable {\n    using SafeMath for uint256;\n\n    event NewCampaignOpen(\n        uint256 date,\n        string website,\n        address owner,\n        uint256 budget,\n        uint256 reward\n    );\n\n    struct Influencer {\n        address addr; //influencer public key\n        address owner_address; //referral campaign's owner address\n        string owner_website; // website to which the marketing URL is connected\n        uint256 reward; //influencer reward\n        string referral_link; //influencer referral link generated by the shilling company & our API\n    }\n\n    struct ReferralCampaign {\n        string website;\n        uint256 campaignBudget;\n        uint256 campaignReward;\n        string[] referral_campaign_referral_links_list;\n        bool isActive;\n        uint256 remainingBudget;\n    }\n\n    mapping(string => Influencer) public influencers; // map referral_links to influencers -> one to one relationship\n    // mapping(address => uint256) public campaign_owner_balance; //referral campaign owner's balance\n    mapping(address => uint256) public account_balance; //referral campaign owner's balance\n    mapping(address => ReferralCampaign[]) public referral_campaign_collection; //lists of referral campaigns associated to an address\n\n    function addInfluencer(\n        string memory _website,\n        string memory _referral_link,\n        address _owner\n    ) public returns (bool) {\n        (\n            uint256 referral_campaign_indx,\n            bool found\n        ) = helper_selectReferralCampaign(_owner, _website);\n        //also check if it's still isActive\n\n        if (found) {\n\n                uint256 reward\n             = referral_campaign_collection[_owner][referral_campaign_indx]\n                .campaignReward;\n\n            Influencer memory influencer_instance;\n\n            influencer_instance.addr = msg.sender;\n            influencer_instance.owner_address = _owner;\n            influencer_instance.owner_website = _website;\n            influencer_instance.reward = reward;\n            influencer_instance.referral_link = _referral_link;\n\n            influencers[_referral_link] = influencer_instance;\n            referral_campaign_collection[_owner][referral_campaign_indx]\n                .referral_campaign_referral_links_list\n                .push(_referral_link);\n\n            return true;\n        } else {\n            return false;\n        }\n    }\n\n    function openReferralCampaign(\n        uint256 _campaignBudget,\n        uint256 _campaignReward,\n        string memory _website\n    ) public payable returns (uint256) {\n        require(\n            msg.value == _campaignBudget &&\n                (account_balance[msg.sender] + msg.value) >\n                account_balance[msg.sender]\n        );\n\n        ReferralCampaign memory referral_campaign_instance;\n        referral_campaign_instance.website = _website;\n        referral_campaign_instance.campaignBudget = _campaignBudget;\n        referral_campaign_instance.campaignReward = _campaignReward;\n        referral_campaign_instance.isActive = true;\n        referral_campaign_instance.remainingBudget = _campaignBudget;\n\n        account_balance[msg.sender] = account_balance[msg.sender].add(\n            msg.value\n        );\n        referral_campaign_collection[msg.sender].push(\n            referral_campaign_instance\n        );\n\n        emit NewCampaignOpen(\n            now,\n            _website,\n            msg.sender,\n            _campaignBudget,\n            _campaignReward\n        );\n\n        return account_balance[msg.sender];\n    }\n\n    function getBalanceOfInfluencer(string memory _link)\n        public\n        view\n        returns (uint256)\n    {\n        Influencer storage influencer_instance = influencers[_link];\n        string memory influencer_instance_link = influencer_instance\n            .referral_link;\n        if (helper_compareStrings(influencer_instance_link, _link)) {\n            address influencer_addr = address(influencer_instance.addr);\n            return influencer_addr.balance;\n        }\n        return 0;\n    }\n\n    function forwardRewards(\n        string memory _referral_link,\n        string memory _website,\n        address _from,\n        address _to\n    )\n        public\n        returns (uint256 _campaign_owner_balance, uint256 _influencer_balance)\n    {\n        //add isOwner modifier\n        (\n            uint256 referral_campaign_indx,\n            bool found\n        ) = helper_selectReferralCampaign(_from, _website);\n\n        require(\n            found == true &&\n                account_balance[_from] > influencers[_referral_link].reward &&\n                referral_campaign_collection[_from][referral_campaign_indx]\n                    .isActive ==\n                true &&\n                (account_balance[_from] - influencers[_referral_link].reward) <\n                account_balance[_from]\n        );\n\n        if (\n            referral_campaign_collection[_from][referral_campaign_indx]\n                .remainingBudget > influencers[_referral_link].reward\n        ) {\n            referral_campaign_collection[_from][referral_campaign_indx]\n                .remainingBudget = referral_campaign_collection[_from][referral_campaign_indx]\n                .remainingBudget\n                .sub(influencers[_referral_link].reward);\n            account_balance[_from] = account_balance[_from].sub(\n                influencers[_referral_link].reward\n            );\n            account_balance[_to] = account_balance[_to].add(\n                influencers[_referral_link].reward\n            );\n\n            return (account_balance[_from], account_balance[_to]);\n        } else {\n            referral_campaign_collection[_from][referral_campaign_indx]\n                .isActive = false; //should you remove a campaign once it's not active anymore?\n            return (account_balance[_from], account_balance[_to]);\n        }\n    }\n\n    function withdrawFromCampaign(string memory _website)\n        public\n        payable\n        returns (uint256)\n    {\n        (\n            uint256 referral_campaign_indx,\n            bool found\n        ) = helper_selectReferralCampaign(msg.sender, _website);\n\n        require(\n            found == true &&\n                referral_campaign_collection[msg.sender][referral_campaign_indx]\n                    .remainingBudget >\n                0 &&\n                account_balance[msg.sender] > 0 &&\n                account_balance[msg.sender] >\n                referral_campaign_collection[msg.sender][referral_campaign_indx]\n                    .remainingBudget\n        );\n        referral_campaign_collection[msg.sender][referral_campaign_indx]\n            .isActive = false;\n        account_balance[msg.sender] = account_balance[msg.sender].sub(\n            referral_campaign_collection[msg.sender][referral_campaign_indx]\n                .remainingBudget\n        );\n        msg.sender.transfer(\n            referral_campaign_collection[msg.sender][referral_campaign_indx]\n                .remainingBudget\n        );\n        referral_campaign_collection[msg.sender][referral_campaign_indx]\n            .remainingBudget = 0;\n\n        return account_balance[msg.sender];\n    }\n\n    function lookupCampaignReferralsCollectionLength(address _account_address)\n        public\n        view\n        returns (uint256)\n    {\n        require(\n            referral_campaign_collection[_account_address][0].campaignBudget !=\n                0\n        );\n        return referral_campaign_collection[_account_address].length;\n    }\n\n    function lookUpCampaignReferral(address _account_address, uint256 _index)\n        public\n        view\n        returns (string memory, uint256, uint256, bool, address[] memory)\n    {\n        require(\n            referral_campaign_collection[_account_address][_index]\n                .campaignBudget != 0\n        );\n\n            string memory campaign_referral_website\n         = referral_campaign_collection[_account_address][_index].website;\n\n\n            address[] memory referral_campaign_influencers_address_list\n         = new address[](\n            referral_campaign_collection[_account_address][_index]\n                .referral_campaign_referral_links_list\n                .length\n        ); //length of the array equal to length of the referral campaign's referral links array\n        for (\n            uint256 i = 0;\n            i <\n            referral_campaign_collection[_account_address][_index]\n                .referral_campaign_referral_links_list\n                .length;\n            i++\n        ) {\n\n                address influencer_addr\n             = influencers[referral_campaign_collection[_account_address][_index]\n                .referral_campaign_referral_links_list[i]]\n                .addr;\n            referral_campaign_influencers_address_list[i] = influencer_addr;\n        }\n\n        return (\n            campaign_referral_website,\n            referral_campaign_collection[_account_address][_index]\n                .campaignBudget,\n            referral_campaign_collection[_account_address][_index]\n                .campaignReward,\n            referral_campaign_collection[_account_address][_index].isActive,\n            referral_campaign_influencers_address_list\n        );\n    }\n\n    function helper_selectReferralCampaign(\n        address _address,\n        string memory _website\n    ) public view returns (uint256, bool) {\n        uint256 indx = 0;\n        bool found = false;\n        for (\n            uint256 i = 0;\n            i < referral_campaign_collection[_address].length;\n            i++\n        ) {\n            string memory website = referral_campaign_collection[_address][i]\n                .website;\n            if (keccak256(bytes(website)) == keccak256(bytes(_website))) {\n                indx = i;\n                found = true;\n            }\n        }\n\n        return (indx, found);\n    }\n\n    function helper_compareStrings(string memory a, string memory b)\n        public\n        pure\n        returns (bool)\n    {\n        //probably should be internal\n        return (keccak256(abi.encodePacked(a)) ==\n            keccak256(abi.encodePacked(b)));\n    }\n}\n",
  "sourcePath": "/home/biosas/Desktop/hack-money-v1/contracts/CrowdlinkReferral.sol",
  "compiler": {
    "name": "solc",
    "version": "0.5.16+commit.9c3226ce.Emscripten.clang"
  },
  "schemaVersion": "3.0.23",
  "updatedAt": "2020-05-16T16:13:24.141Z",
  "networkType": "ethereum",
  "devdoc": {
    "methods": {
      "isOwner()": {
        "details": "Returns true if the caller is the current owner."
      },
      "owner()": {
        "details": "Returns the address of the current owner."
      },
      "renounceOwnership()": {
        "details": "Leaves the contract without owner. It will not be possible to call `onlyOwner` functions anymore. Can only be called by the current owner.     * NOTE: Renouncing ownership will leave the contract without an owner, thereby removing any functionality that is only available to the owner."
      },
      "transferOwnership(address)": {
        "details": "Transfers ownership of the contract to a new account (`newOwner`). Can only be called by the current owner."
      }
    }
  },
  "userdoc": {
    "methods": {}
  }
}