{
  "contractName": "CrowdlinkReferral",
  "abi": [
    {
      "anonymous": false,
      "inputs": [
        {
          "indexed": true,
          "internalType": "address",
          "name": "previousOwner",
          "type": "address"
        },
        {
          "indexed": true,
          "internalType": "address",
          "name": "newOwner",
          "type": "address"
        }
      ],
      "name": "OwnershipTransferred",
      "type": "event"
    },
    {
      "constant": true,
      "inputs": [
        {
          "internalType": "address",
          "name": "",
          "type": "address"
        }
      ],
      "name": "campaign_owner_balance",
      "outputs": [
        {
          "internalType": "uint256",
          "name": "",
          "type": "uint256"
        }
      ],
      "payable": false,
      "stateMutability": "view",
      "type": "function"
    },
    {
      "constant": true,
      "inputs": [
        {
          "internalType": "string",
          "name": "",
          "type": "string"
        }
      ],
      "name": "influencers",
      "outputs": [
        {
          "internalType": "address",
          "name": "addr",
          "type": "address"
        },
        {
          "internalType": "address",
          "name": "owner_address",
          "type": "address"
        },
        {
          "internalType": "string",
          "name": "owner_website",
          "type": "string"
        },
        {
          "internalType": "uint256",
          "name": "reward",
          "type": "uint256"
        },
        {
          "internalType": "string",
          "name": "link",
          "type": "string"
        },
        {
          "internalType": "uint256",
          "name": "referredCount",
          "type": "uint256"
        }
      ],
      "payable": false,
      "stateMutability": "view",
      "type": "function"
    },
    {
      "constant": true,
      "inputs": [],
      "name": "isOwner",
      "outputs": [
        {
          "internalType": "bool",
          "name": "",
          "type": "bool"
        }
      ],
      "payable": false,
      "stateMutability": "view",
      "type": "function"
    },
    {
      "constant": true,
      "inputs": [],
      "name": "owner",
      "outputs": [
        {
          "internalType": "address",
          "name": "",
          "type": "address"
        }
      ],
      "payable": false,
      "stateMutability": "view",
      "type": "function"
    },
    {
      "constant": true,
      "inputs": [
        {
          "internalType": "address",
          "name": "",
          "type": "address"
        }
      ],
      "name": "referral_campaign_balance",
      "outputs": [
        {
          "internalType": "uint256",
          "name": "",
          "type": "uint256"
        }
      ],
      "payable": false,
      "stateMutability": "view",
      "type": "function"
    },
    {
      "constant": true,
      "inputs": [
        {
          "internalType": "address",
          "name": "",
          "type": "address"
        },
        {
          "internalType": "uint256",
          "name": "",
          "type": "uint256"
        }
      ],
      "name": "referral_campaign_collection",
      "outputs": [
        {
          "internalType": "string",
          "name": "website",
          "type": "string"
        },
        {
          "internalType": "bool",
          "name": "isActive",
          "type": "bool"
        },
        {
          "internalType": "uint256",
          "name": "campaignBudget",
          "type": "uint256"
        },
        {
          "internalType": "uint256",
          "name": "campaignReward",
          "type": "uint256"
        }
      ],
      "payable": false,
      "stateMutability": "view",
      "type": "function"
    },
    {
      "constant": false,
      "inputs": [],
      "name": "renounceOwnership",
      "outputs": [],
      "payable": false,
      "stateMutability": "nonpayable",
      "type": "function"
    },
    {
      "constant": false,
      "inputs": [
        {
          "internalType": "address",
          "name": "newOwner",
          "type": "address"
        }
      ],
      "name": "transferOwnership",
      "outputs": [],
      "payable": false,
      "stateMutability": "nonpayable",
      "type": "function"
    },
    {
      "constant": true,
      "inputs": [
        {
          "internalType": "string",
          "name": "",
          "type": "string"
        },
        {
          "internalType": "string",
          "name": "",
          "type": "string"
        }
      ],
      "name": "website_to_influencer",
      "outputs": [
        {
          "internalType": "address",
          "name": "addr",
          "type": "address"
        },
        {
          "internalType": "address",
          "name": "owner_address",
          "type": "address"
        },
        {
          "internalType": "string",
          "name": "owner_website",
          "type": "string"
        },
        {
          "internalType": "uint256",
          "name": "reward",
          "type": "uint256"
        },
        {
          "internalType": "string",
          "name": "link",
          "type": "string"
        },
        {
          "internalType": "uint256",
          "name": "referredCount",
          "type": "uint256"
        }
      ],
      "payable": false,
      "stateMutability": "view",
      "type": "function"
    },
    {
      "constant": true,
      "inputs": [
        {
          "internalType": "string",
          "name": "",
          "type": "string"
        },
        {
          "internalType": "uint256",
          "name": "",
          "type": "uint256"
        }
      ],
      "name": "website_to_link",
      "outputs": [
        {
          "internalType": "string",
          "name": "",
          "type": "string"
        }
      ],
      "payable": false,
      "stateMutability": "view",
      "type": "function"
    },
    {
      "constant": true,
      "inputs": [
        {
          "internalType": "string",
          "name": "a",
          "type": "string"
        },
        {
          "internalType": "string",
          "name": "b",
          "type": "string"
        }
      ],
      "name": "helper_compareStrings",
      "outputs": [
        {
          "internalType": "bool",
          "name": "",
          "type": "bool"
        }
      ],
      "payable": false,
      "stateMutability": "pure",
      "type": "function"
    },
    {
      "constant": false,
      "inputs": [
        {
          "internalType": "string",
          "name": "_website",
          "type": "string"
        },
        {
          "internalType": "string",
          "name": "_link",
          "type": "string"
        },
        {
          "internalType": "address",
          "name": "_owner",
          "type": "address"
        }
      ],
      "name": "addInfluencer",
      "outputs": [
        {
          "internalType": "bool",
          "name": "",
          "type": "bool"
        }
      ],
      "payable": false,
      "stateMutability": "nonpayable",
      "type": "function"
    },
    {
      "constant": false,
      "inputs": [
        {
          "internalType": "uint256",
          "name": "_campaignBudget",
          "type": "uint256"
        },
        {
          "internalType": "uint256",
          "name": "_campaignReward",
          "type": "uint256"
        },
        {
          "internalType": "string",
          "name": "_website",
          "type": "string"
        }
      ],
      "name": "openReferralCampaign",
      "outputs": [],
      "payable": false,
      "stateMutability": "nonpayable",
      "type": "function"
    },
    {
      "constant": true,
      "inputs": [
        {
          "internalType": "string",
          "name": "_link",
          "type": "string"
        }
      ],
      "name": "getBalanceOfInfluencer",
      "outputs": [
        {
          "internalType": "uint256",
          "name": "",
          "type": "uint256"
        }
      ],
      "payable": false,
      "stateMutability": "view",
      "type": "function"
    },
    {
      "constant": true,
      "inputs": [
        {
          "internalType": "address",
          "name": "_address",
          "type": "address"
        },
        {
          "internalType": "string",
          "name": "_website",
          "type": "string"
        }
      ],
      "name": "helper_selectReferralCampaign",
      "outputs": [
        {
          "internalType": "uint256",
          "name": "",
          "type": "uint256"
        },
        {
          "internalType": "bool",
          "name": "",
          "type": "bool"
        }
      ],
      "payable": false,
      "stateMutability": "view",
      "type": "function"
    },
    {
      "constant": true,
      "inputs": [
        {
          "internalType": "address",
          "name": "_account_address",
          "type": "address"
        }
      ],
      "name": "lookupCampaignReferralsCollectionLength",
      "outputs": [
        {
          "internalType": "uint256",
          "name": "",
          "type": "uint256"
        }
      ],
      "payable": false,
      "stateMutability": "view",
      "type": "function"
    },
    {
      "constant": true,
      "inputs": [
        {
          "internalType": "address",
          "name": "_account_address",
          "type": "address"
        },
        {
          "internalType": "uint256",
          "name": "_index",
          "type": "uint256"
        }
      ],
      "name": "lookUpCampaignReferral",
      "outputs": [
        {
          "internalType": "string",
          "name": "",
          "type": "string"
        },
        {
          "internalType": "uint256",
          "name": "",
          "type": "uint256"
        },
        {
          "internalType": "uint256",
          "name": "",
          "type": "uint256"
        },
        {
          "internalType": "bool",
          "name": "",
          "type": "bool"
        },
        {
          "internalType": "address[]",
          "name": "",
          "type": "address[]"
        }
      ],
      "payable": false,
      "stateMutability": "view",
      "type": "function"
    }
  ],
  "bytecode": "0x60806040526100126100d260201b60201c565b6000806101000a81548173ffffffffffffffffffffffffffffffffffffffff021916908373ffffffffffffffffffffffffffffffffffffffff1602179055506000809054906101000a900473ffffffffffffffffffffffffffffffffffffffff1673ffffffffffffffffffffffffffffffffffffffff16600073ffffffffffffffffffffffffffffffffffffffff167f8be0079c531659141344cd1fd0a4f28419497f9722a3daafe3b4186f6b6457e060405160405180910390a36100da565b600033905090565b612a6b806100e96000396000f3fe608060405234801561001057600080fd5b506004361061010b5760003560e01c80638f32d59b116100a2578063ba13c92411610071578063ba13c92414610d05578063cf1fa45d14610de5578063d254e14d14610f6f578063dc63775f14610fc7578063f2fde38b1461101f5761010b565b80638f32d59b146109ae5780639729e1f6146109d0578063a39a66ae14610a9f578063b9efd93c14610bdd5761010b565b80636f14fbed116100de5780636f14fbed14610791578063715018a61461088b578063827373a2146108955780638da5cb5b146109645761010b565b80631c8fd8c81461011057806329b400fe1461016857806364c15317146104135780636995beb31461057d575b600080fd5b6101526004803603602081101561012657600080fd5b81019080803573ffffffffffffffffffffffffffffffffffffffff169060200190929190505050611063565b6040518082815260200191505060405180910390f35b6102b86004803603604081101561017e57600080fd5b810190808035906020019064010000000081111561019b57600080fd5b8201836020820111156101ad57600080fd5b803590602001918460018302840111640100000000831117156101cf57600080fd5b91908080601f016020809104026020016040519081016040528093929190818152602001838380828437600081840152601f19601f8201169050808301925050505050505091929192908035906020019064010000000081111561023257600080fd5b82018360208201111561024457600080fd5b8035906020019184600183028401116401000000008311171561026657600080fd5b91908080601f016020809104026020016040519081016040528093929190818152602001838380828437600081840152601f19601f82011690508083019250505050505050919291929050505061107b565b604051808773ffffffffffffffffffffffffffffffffffffffff1673ffffffffffffffffffffffffffffffffffffffff1681526020018673ffffffffffffffffffffffffffffffffffffffff1673ffffffffffffffffffffffffffffffffffffffff1681526020018060200185815260200180602001848152602001838103835287818151815260200191508051906020019080838360005b8381101561036c578082015181840152602081019050610351565b50505050905090810190601f1680156103995780820380516001836020036101000a031916815260200191505b50838103825285818151815260200191508051906020019080838360005b838110156103d25780820151818401526020810190506103b7565b50505050905090810190601f1680156103ff5780820380516001836020036101000a031916815260200191505b509850505050505050505060405180910390f35b6105636004803603604081101561042957600080fd5b810190808035906020019064010000000081111561044657600080fd5b82018360208201111561045857600080fd5b8035906020019184600183028401116401000000008311171561047a57600080fd5b91908080601f016020809104026020016040519081016040528093929190818152602001838380828437600081840152601f19601f820116905080830192505050505050509192919290803590602001906401000000008111156104dd57600080fd5b8201836020820111156104ef57600080fd5b8035906020019184600183028401116401000000008311171561051157600080fd5b91908080601f016020809104026020016040519081016040528093929190818152602001838380828437600081840152601f19601f820116905080830192505050505050509192919290505050611260565b604051808215151515815260200191505060405180910390f35b6106366004803603602081101561059357600080fd5b81019080803590602001906401000000008111156105b057600080fd5b8201836020820111156105c257600080fd5b803590602001918460018302840111640100000000831117156105e457600080fd5b91908080601f016020809104026020016040519081016040528093929190818152602001838380828437600081840152601f19601f82011690508083019250505050505050919291929050505061134f565b604051808773ffffffffffffffffffffffffffffffffffffffff1673ffffffffffffffffffffffffffffffffffffffff1681526020018673ffffffffffffffffffffffffffffffffffffffff1673ffffffffffffffffffffffffffffffffffffffff1681526020018060200185815260200180602001848152602001838103835287818151815260200191508051906020019080838360005b838110156106ea5780820151818401526020810190506106cf565b50505050905090810190601f1680156107175780820380516001836020036101000a031916815260200191505b50838103825285818151815260200191508051906020019080838360005b83811015610750578082015181840152602081019050610735565b50505050905090810190601f16801561077d5780820380516001836020036101000a031916815260200191505b509850505050505050505060405180910390f35b61086a600480360360408110156107a757600080fd5b81019080803573ffffffffffffffffffffffffffffffffffffffff169060200190929190803590602001906401000000008111156107e457600080fd5b8201836020820111156107f657600080fd5b8035906020019184600183028401116401000000008311171561081857600080fd5b91908080601f016020809104026020016040519081016040528093929190818152602001838380828437600081840152601f19601f820116905080830192505050505050509192919290505050611511565b60405180838152602001821515151581526020019250505060405180910390f35b6108936116a2565b005b61094e600480360360208110156108ab57600080fd5b81019080803590602001906401000000008111156108c857600080fd5b8201836020820111156108da57600080fd5b803590602001918460018302840111640100000000831117156108fc57600080fd5b91908080601f016020809104026020016040519081016040528093929190818152602001838380828437600081840152601f19601f8201169050808301925050505050505091929192905050506117db565b6040518082815260200191505060405180910390f35b61096c611950565b604051808273ffffffffffffffffffffffffffffffffffffffff1673ffffffffffffffffffffffffffffffffffffffff16815260200191505060405180910390f35b6109b6611979565b604051808215151515815260200191505060405180910390f35b610a9d600480360360608110156109e657600080fd5b81019080803590602001909291908035906020019092919080359060200190640100000000811115610a1757600080fd5b820183602082011115610a2957600080fd5b80359060200191846001830284011164010000000083111715610a4b57600080fd5b91908080601f016020809104026020016040519081016040528093929190818152602001838380828437600081840152601f19601f8201169050808301925050505050505091929192905050506119d7565b005b610b6260048036036040811015610ab557600080fd5b8101908080359060200190640100000000811115610ad257600080fd5b820183602082011115610ae457600080fd5b80359060200191846001830284011164010000000083111715610b0657600080fd5b91908080601f016020809104026020016040519081016040528093929190818152602001838380828437600081840152601f19601f82011690508083019250505050505050919291929080359060200190929190505050611ad2565b6040518080602001828103825283818151815260200191508051906020019080838360005b83811015610ba2578082015181840152602081019050610b87565b50505050905090810190601f168015610bcf5780820380516001836020036101000a031916815260200191505b509250505060405180910390f35b610c2960048036036040811015610bf357600080fd5b81019080803573ffffffffffffffffffffffffffffffffffffffff16906020019092919080359060200190929190505050611bae565b60405180806020018681526020018581526020018415151515815260200180602001838103835288818151815260200191508051906020019080838360005b83811015610c83578082015181840152602081019050610c68565b50505050905090810190601f168015610cb05780820380516001836020036101000a031916815260200191505b50838103825284818151815260200191508051906020019060200280838360005b83811015610cec578082015181840152602081019050610cd1565b5050505090500197505050505050505060405180910390f35b610d5160048036036040811015610d1b57600080fd5b81019080803573ffffffffffffffffffffffffffffffffffffffff169060200190929190803590602001909291905050506120d7565b604051808060200185151515158152602001848152602001838152602001828103825286818151815260200191508051906020019080838360005b83811015610da7578082015181840152602081019050610d8c565b50505050905090810190601f168015610dd45780820380516001836020036101000a031916815260200191505b509550505050505060405180910390f35b610f5560048036036060811015610dfb57600080fd5b8101908080359060200190640100000000811115610e1857600080fd5b820183602082011115610e2a57600080fd5b80359060200191846001830284011164010000000083111715610e4c57600080fd5b91908080601f016020809104026020016040519081016040528093929190818152602001838380828437600081840152601f19601f82011690508083019250505050505050919291929080359060200190640100000000811115610eaf57600080fd5b820183602082011115610ec157600080fd5b80359060200191846001830284011164010000000083111715610ee357600080fd5b91908080601f016020809104026020016040519081016040528093929190818152602001838380828437600081840152601f19601f820116905080830192505050505050509192919290803573ffffffffffffffffffffffffffffffffffffffff1690602001909291905050506121c6565b604051808215151515815260200191505060405180910390f35b610fb160048036036020811015610f8557600080fd5b81019080803573ffffffffffffffffffffffffffffffffffffffff1690602001909291905050506124b7565b6040518082815260200191505060405180910390f35b61100960048036036020811015610fdd57600080fd5b81019080803573ffffffffffffffffffffffffffffffffffffffff1690602001909291905050506124cf565b6040518082815260200191505060405180910390f35b6110616004803603602081101561103557600080fd5b81019080803573ffffffffffffffffffffffffffffffffffffffff169060200190929190505050612584565b005b60056020528060005260406000206000915090505481565b60038280516020810182018051848252602083016020850120818352809550505050505081805160208101820180518482526020830160208501208183528095505050505050600091509150508060000160009054906101000a900473ffffffffffffffffffffffffffffffffffffffff16908060010160009054906101000a900473ffffffffffffffffffffffffffffffffffffffff1690806002018054600181600116156101000203166002900480601f0160208091040260200160405190810160405280929190818152602001828054600181600116156101000203166002900480156111ac5780601f10611181576101008083540402835291602001916111ac565b820191906000526020600020905b81548152906001019060200180831161118f57829003601f168201915b505050505090806003015490806004018054600181600116156101000203166002900480601f0160208091040260200160405190810160405280929190818152602001828054600181600116156101000203166002900480156112505780601f1061122557610100808354040283529160200191611250565b820191906000526020600020905b81548152906001019060200180831161123357829003601f168201915b5050505050908060050154905086565b6000816040516020018082805190602001908083835b602083106112995780518252602082019150602081019050602083039250611276565b6001836020036101000a03801982511681845116808217855250505050505090500191505060405160208183030381529060405280519060200120836040516020018082805190602001908083835b6020831061130b57805182526020820191506020810190506020830392506112e8565b6001836020036101000a0380198251168184511680821785525050505050509050019150506040516020818303038152906040528051906020012014905092915050565b6002818051602081018201805184825260208301602085012081835280955050505050506000915090508060000160009054906101000a900473ffffffffffffffffffffffffffffffffffffffff16908060010160009054906101000a900473ffffffffffffffffffffffffffffffffffffffff1690806002018054600181600116156101000203166002900480601f01602080910402602001604051908101604052809291908181526020018280546001816001161561010002031660029004801561145d5780601f106114325761010080835404028352916020019161145d565b820191906000526020600020905b81548152906001019060200180831161144057829003601f168201915b505050505090806003015490806004018054600181600116156101000203166002900480601f0160208091040260200160405190810160405280929190818152602001828054600181600116156101000203166002900480156115015780601f106114d657610100808354040283529160200191611501565b820191906000526020600020905b8154815290600101906020018083116114e457829003601f168201915b5050505050908060050154905086565b6000806000809050600080905060008090505b600660008873ffffffffffffffffffffffffffffffffffffffff1673ffffffffffffffffffffffffffffffffffffffff16815260200190815260200160002080549050811015611692576060600660008973ffffffffffffffffffffffffffffffffffffffff1673ffffffffffffffffffffffffffffffffffffffff16815260200190815260200160002082815481106115ba57fe5b90600052602060002090600402016000018054600181600116156101000203166002900480601f01602080910402602001604051908101604052809291908181526020018280546001816001161561010002031660029004801561165f5780601f106116345761010080835404028352916020019161165f565b820191906000526020600020905b81548152906001019060200180831161164257829003601f168201915b5050505050905086805190602001208180519060200120141561168457819350600192505b508080600101915050611524565b5081819350935050509250929050565b6116aa611979565b61171c576040517f08c379a00000000000000000000000000000000000000000000000000000000081526004018080602001828103825260208152602001807f4f776e61626c653a2063616c6c6572206973206e6f7420746865206f776e657281525060200191505060405180910390fd5b600073ffffffffffffffffffffffffffffffffffffffff166000809054906101000a900473ffffffffffffffffffffffffffffffffffffffff1673ffffffffffffffffffffffffffffffffffffffff167f8be0079c531659141344cd1fd0a4f28419497f9722a3daafe3b4186f6b6457e060405160405180910390a360008060006101000a81548173ffffffffffffffffffffffffffffffffffffffff021916908373ffffffffffffffffffffffffffffffffffffffff160217905550565b6000806002836040518082805190602001908083835b6020831061181457805182526020820191506020810190506020830392506117f1565b6001836020036101000a038019825116818451168082178552505050505050905001915050908152602001604051809103902090506060816004018054600181600116156101000203166002900480601f0160208091040260200160405190810160405280929190818152602001828054600181600116156101000203166002900480156118e35780601f106118b8576101008083540402835291602001916118e3565b820191906000526020600020905b8154815290600101906020018083116118c657829003601f168201915b505050505090506118f48185611260565b156119445760008260000160009054906101000a900473ffffffffffffffffffffffffffffffffffffffff1690508073ffffffffffffffffffffffffffffffffffffffff1631935050505061194b565b6000925050505b919050565b60008060009054906101000a900473ffffffffffffffffffffffffffffffffffffffff16905090565b60008060009054906101000a900473ffffffffffffffffffffffffffffffffffffffff1673ffffffffffffffffffffffffffffffffffffffff166119bb61260a565b73ffffffffffffffffffffffffffffffffffffffff1614905090565b6119df612756565b81816000018190525060018160200190151590811515815250508381604001818152505082816060018181525050600660003373ffffffffffffffffffffffffffffffffffffffff1673ffffffffffffffffffffffffffffffffffffffff16815260200190815260200160002081908060018154018082558091505090600182039060005260206000209060040201600090919290919091506000820151816000019080519060200190611a94929190612780565b5060208201518160010160006101000a81548160ff021916908315150217905550604082015181600201556060820151816003015550505050505050565b6001828051602081018201805184825260208301602085012081835280955050505050508181548110611b0157fe5b90600052602060002001600091509150508054600181600116156101000203166002900480601f016020809104026020016040519081016040528092919081815260200182805460018160011615610100020316600290048015611ba65780601f10611b7b57610100808354040283529160200191611ba6565b820191906000526020600020905b815481529060010190602001808311611b8957829003601f168201915b505050505081565b6060600080600060606000600660008973ffffffffffffffffffffffffffffffffffffffff1673ffffffffffffffffffffffffffffffffffffffff1681526020019081526020016000208781548110611c0357fe5b9060005260206000209060040201600201541415611c2057600080fd5b6060600660008973ffffffffffffffffffffffffffffffffffffffff1673ffffffffffffffffffffffffffffffffffffffff1681526020019081526020016000208781548110611c6c57fe5b90600052602060002090600402016000018054600181600116156101000203166002900480601f016020809104026020016040519081016040528092919081815260200182805460018160011615610100020316600290048015611d115780601f10611ce657610100808354040283529160200191611d11565b820191906000526020600020905b815481529060010190602001808311611cf457829003601f168201915b5050505050905060606001826040518082805190602001908083835b60208310611d505780518252602082019150602081019050602083039250611d2d565b6001836020036101000a038019825116818451168082178552505050505050905001915050908152602001604051809103902080549050604051908082528060200260200182016040528015611db55781602001602082028038833980820191505090505b50905060008090505b6001836040518082805190602001908083835b60208310611df45780518252602082019150602081019050602083039250611dd1565b6001836020036101000a038019825116818451168082178552505050505050905001915050908152602001604051809103902080549050811015611f9d57600060026001856040518082805190602001908083835b60208310611e6c5780518252602082019150602081019050602083039250611e49565b6001836020036101000a03801982511681845116808217855250505050505090500191505090815260200160405180910390208381548110611eaa57fe5b906000526020600020016040518082805460018160011615610100020316600290048015611f0f5780601f10611eed576101008083540402835291820191611f0f565b820191906000526020600020905b815481529060010190602001808311611efb575b5050915050908152602001604051809103902060000160009054906101000a900473ffffffffffffffffffffffffffffffffffffffff16905080838381518110611f5557fe5b602002602001019073ffffffffffffffffffffffffffffffffffffffff16908173ffffffffffffffffffffffffffffffffffffffff1681525050508080600101915050611dbe565b5081600660008b73ffffffffffffffffffffffffffffffffffffffff1673ffffffffffffffffffffffffffffffffffffffff1681526020019081526020016000208981548110611fe957fe5b906000526020600020906004020160020154600660008c73ffffffffffffffffffffffffffffffffffffffff1673ffffffffffffffffffffffffffffffffffffffff1681526020019081526020016000208a8154811061204557fe5b906000526020600020906004020160030154600660008d73ffffffffffffffffffffffffffffffffffffffff1673ffffffffffffffffffffffffffffffffffffffff1681526020019081526020016000208b815481106120a157fe5b906000526020600020906004020160010160009054906101000a900460ff16849650965096509650965050509295509295909350565b600660205281600052604060002081815481106120f057fe5b906000526020600020906004020160009150915050806000018054600181600116156101000203166002900480601f01602080910402602001604051908101604052809291908181526020018280546001816001161561010002031660029004801561219d5780601f106121725761010080835404028352916020019161219d565b820191906000526020600020905b81548152906001019060200180831161218057829003601f168201915b5050505050908060010160009054906101000a900460ff16908060020154908060030154905084565b60008060006121d58487611511565b9150915080156124a9576000600660008673ffffffffffffffffffffffffffffffffffffffff1673ffffffffffffffffffffffffffffffffffffffff168152602001908152602001600020838154811061222b57fe5b906000526020600020906004020160030154905060006002876040518082805190602001908083835b602083106122775780518252602082019150602081019050602083039250612254565b6001836020036101000a03801982511681845116808217855250505050505090500191505090815260200160405180910390209050338160000160006101000a81548173ffffffffffffffffffffffffffffffffffffffff021916908373ffffffffffffffffffffffffffffffffffffffff160217905550858160010160006101000a81548173ffffffffffffffffffffffffffffffffffffffff021916908373ffffffffffffffffffffffffffffffffffffffff1602179055508781600201908051906020019061234a929190612800565b508181600301819055508681600401908051906020019061236c929190612800565b506000816005018190555060006001896040518082805190602001908083835b602083106123af578051825260208201915060208101905060208303925061238c565b6001836020036101000a0380198251168184511680821785525050505050509050019150509081526020016040518091039020905080889080600181540180825580915050906001820390600052602060002001600090919290919091509080519060200190612420929190612800565b50508060018a6040518082805190602001908083835b602083106124595780518252602082019150602081019050602083039250612436565b6001836020036101000a038019825116818451168082178552505050505050905001915050908152602001604051809103902090805461249a929190612880565b506001955050505050506124b0565b6000925050505b9392505050565b60046020528060005260406000206000915090505481565b600080600660008473ffffffffffffffffffffffffffffffffffffffff1673ffffffffffffffffffffffffffffffffffffffff16815260200190815260200160002060008154811061251d57fe5b906000526020600020906004020160020154141561253a57600080fd5b600660008373ffffffffffffffffffffffffffffffffffffffff1673ffffffffffffffffffffffffffffffffffffffff168152602001908152602001600020805490509050919050565b61258c611979565b6125fe576040517f08c379a00000000000000000000000000000000000000000000000000000000081526004018080602001828103825260208152602001807f4f776e61626c653a2063616c6c6572206973206e6f7420746865206f776e657281525060200191505060405180910390fd5b61260781612612565b50565b600033905090565b600073ffffffffffffffffffffffffffffffffffffffff168173ffffffffffffffffffffffffffffffffffffffff161415612698576040517f08c379a0000000000000000000000000000000000000000000000000000000008152600401808060200182810382526026815260200180612a116026913960400191505060405180910390fd5b8073ffffffffffffffffffffffffffffffffffffffff166000809054906101000a900473ffffffffffffffffffffffffffffffffffffffff1673ffffffffffffffffffffffffffffffffffffffff167f8be0079c531659141344cd1fd0a4f28419497f9722a3daafe3b4186f6b6457e060405160405180910390a3806000806101000a81548173ffffffffffffffffffffffffffffffffffffffff021916908373ffffffffffffffffffffffffffffffffffffffff16021790555050565b60405180608001604052806060815260200160001515815260200160008152602001600081525090565b828054600181600116156101000203166002900490600052602060002090601f016020900481019282601f106127c157805160ff19168380011785556127ef565b828001600101855582156127ef579182015b828111156127ee5782518255916020019190600101906127d3565b5b5090506127fc91906128f0565b5090565b828054600181600116156101000203166002900490600052602060002090601f016020900481019282601f1061284157805160ff191683800117855561286f565b8280016001018555821561286f579182015b8281111561286e578251825591602001919060010190612853565b5b50905061287c91906128f0565b5090565b8280548282559060005260206000209081019282156128df5760005260206000209182015b828111156128de57828290805460018160011615610100020316600290046128ce929190612915565b50916001019190600101906128a5565b5b5090506128ec919061299c565b5090565b61291291905b8082111561290e5760008160009055506001016128f6565b5090565b90565b828054600181600116156101000203166002900490600052602060002090601f016020900481019282601f1061294e578054855561298b565b8280016001018555821561298b57600052602060002091601f016020900482015b8281111561298a57825482559160010191906001019061296f565b5b50905061299891906128f0565b5090565b6129c591905b808211156129c157600081816129b891906129c8565b506001016129a2565b5090565b90565b50805460018160011615610100020316600290046000825580601f106129ee5750612a0d565b601f016020900490600052602060002090810190612a0c91906128f0565b5b5056fe4f776e61626c653a206e6577206f776e657220697320746865207a65726f2061646472657373a265627a7a72315820cf60b215cfa19be60ed69248f452de0d4581da74dee863081e7e676b8106f5df64736f6c63430005100032",
  "source": "pragma solidity ^0.5.16;\nimport '../node_modules/@openzeppelin/contracts/ownership/Ownable.sol';\nimport '../node_modules/@openzeppelin/contracts/math/SafeMath.sol';\n\n\n \ncontract CrowdlinkReferral is Ownable {\n    struct Influencer {\n        address addr; //influencer public key\n        address owner_address; //referral campaign's owner address\n        string owner_website; // website to which the marketing URL is connected\n        uint reward; //influencer reward\n        string link; //influencer referral link generated by the shilling company & our API\n        \n        \n        uint referredCount; // how many times it was referred\n        mapping (bytes32 => bool) referred; //is it referred?\n    }\n\n\n    \n    struct ReferralCampaign {\n        string website;\n        bool isActive;\n        uint campaignBudget;\n        uint campaignReward;\n        // mapping(string => Influencer[]) referral_campaign_influencers_list; //website to influencer\n        \n        // string[] referral_links; //save the unique referral link which will be used to refer to the corresponding influencer through the string=>influencer mapping\n    }\n    \n    mapping(string => string[]) public website_to_link; //website to referral links array\n    mapping(string => Influencer) public influencers; // map referral_links to influencers -> one to one relationship\n    mapping(string => mapping(string => Influencer)) public website_to_influencer; //map a website to a unique referral link to its influencer\n\n    mapping(address => uint256) public campaign_owner_balance;\n    \n \n     mapping(address => uint) public referral_campaign_balance; //referral campaign owner's balance\n     mapping(address => ReferralCampaign[]) public referral_campaign_collection; //lists of referral campaigns associated to an address\n    \n    uint private referredCount;\n    uint private referrersCount;\n    \n        \n    function helper_compareStrings(string memory a, string memory b) public pure returns(bool) {  //probably should be internal\n       \n        return (keccak256(abi.encodePacked(a)) == keccak256(abi.encodePacked(b)));\n    }\n    \n    function addInfluencer(string memory _website, string memory _link, address _owner) public returns(bool) {\n        (uint referral_campaign_indx, bool found)= helper_selectReferralCampaign(_owner, _website);\n        //also check if it's still isActive\n        \n        if(found) {\n            uint reward = referral_campaign_collection[_owner][referral_campaign_indx].campaignReward;\n            \n            Influencer storage influencer_instance = influencers[_link];\n         \n            influencer_instance.addr = msg.sender;\n            influencer_instance.owner_address = _owner;\n            influencer_instance.owner_website = _website;\n            influencer_instance.reward = reward;\n            influencer_instance.link = _link;\n            influencer_instance.referredCount = 0;\n            \n       \n            string[] storage website_to_link_instance = website_to_link[_website];\n            website_to_link_instance.push(_link);\n            website_to_link[_website] = website_to_link_instance;\n            \n            \n            \n            \n            return true;\n        } else {\n            return false;\n        }\n        \n    }\n    \n    \n    \n    function openReferralCampaign(uint _campaignBudget, uint _campaignReward, string memory _website )  public {\n        //remember to add the payment\n        ReferralCampaign memory referral_campaign_instance;\n        referral_campaign_instance.website = _website;\n        referral_campaign_instance.isActive = true;\n        referral_campaign_instance.campaignBudget = _campaignBudget;\n        referral_campaign_instance.campaignReward = _campaignReward;\n        \n        referral_campaign_collection[msg.sender].push(referral_campaign_instance);\n        \n    }\n    \n    function getBalanceOfInfluencer(string memory _link) view public returns (uint256) {\n        Influencer storage influencer_instance = influencers[_link];\n        string memory influencer_instance_link = influencer_instance.link;\n        if(helper_compareStrings(influencer_instance_link, _link)) {\n            address influencer_addr = address(influencer_instance.addr);\n            return influencer_addr.balance;\n            \n        }\n        return 0;\n    }\n    \n    \n    function helper_selectReferralCampaign(address _address, string memory _website) public view returns(uint256, bool) {\n        uint indx = 0;\n        bool found = false;\n        for(uint256 i=0; i<referral_campaign_collection[_address].length; i++) {\n            string memory website = referral_campaign_collection[_address][i].website;\n            if(keccak256(bytes(website))  == keccak256(bytes(_website))){\n                indx = i;\n                found = true;\n            }\n        }\n       \n        return (indx, found);\n        \n    }\n    \n    \n    //add forward rewards function\n\n\n        \n    function lookupCampaignReferralsCollectionLength(address _account_address) public view returns(uint){\n       require(referral_campaign_collection[_account_address][0].campaignBudget != 0);\n        return referral_campaign_collection[_account_address].length;\n    }\n    \n\n    function lookUpCampaignReferral(address _account_address, uint256 _index) public view returns(string memory, uint256, uint256, bool, address[] memory)  {\n        require(referral_campaign_collection[_account_address][_index].campaignBudget != 0);\n        string memory campaign_referral_website = referral_campaign_collection[_account_address][_index].website;\n        // Influencer[] memory referral_campaign_influencers_list = referral_campaign_collection[_account_address][index].referral_campaign_influencers_list[campaign_referral_website]; // array of influencers for the specific campaign_referral_website\n        \n        address[] memory referral_campaign_influencers_address_list = new address[](website_to_link[campaign_referral_website].length); //length of the array equal to length of the referral campaign's influencers array\n        for(uint i=0; i<website_to_link[campaign_referral_website].length; i++) {\n            \n            address influencer_addr = influencers[website_to_link[campaign_referral_website][i]].addr;\n            referral_campaign_influencers_address_list[i] = influencer_addr;\n        }\n        \n        return (campaign_referral_website, referral_campaign_collection[_account_address][_index].campaignBudget, referral_campaign_collection[_account_address][_index].campaignReward, referral_campaign_collection[_account_address][_index].isActive, referral_campaign_influencers_address_list);\n    }\n\n\n\n    \n    \n    \n}\n",
  "sourcePath": "/home/biosas/Desktop/hack-money-v1/contracts/CrowdlinkReferral.sol",
  "compiler": {
    "name": "solc",
    "version": "0.5.16+commit.9c3226ce.Emscripten.clang"
  },
  "schemaVersion": "3.0.23",
  "updatedAt": "2020-05-11T05:01:40.317Z",
  "devdoc": {
    "methods": {
      "isOwner()": {
        "details": "Returns true if the caller is the current owner."
      },
      "owner()": {
        "details": "Returns the address of the current owner."
      },
      "renounceOwnership()": {
        "details": "Leaves the contract without owner. It will not be possible to call `onlyOwner` functions anymore. Can only be called by the current owner.     * NOTE: Renouncing ownership will leave the contract without an owner, thereby removing any functionality that is only available to the owner."
      },
      "transferOwnership(address)": {
        "details": "Transfers ownership of the contract to a new account (`newOwner`). Can only be called by the current owner."
      }
    }
  },
  "userdoc": {
    "methods": {}
  }
}