{
  "contractName": "CrowdlinkReferral",
  "abi": [
    {
      "anonymous": false,
      "inputs": [
        {
          "indexed": false,
          "internalType": "uint256",
          "name": "date",
          "type": "uint256"
        },
        {
          "indexed": false,
          "internalType": "string",
          "name": "website",
          "type": "string"
        },
        {
          "indexed": false,
          "internalType": "address",
          "name": "owner",
          "type": "address"
        },
        {
          "indexed": false,
          "internalType": "uint256",
          "name": "budget",
          "type": "uint256"
        },
        {
          "indexed": false,
          "internalType": "uint256",
          "name": "reward",
          "type": "uint256"
        },
        {
          "indexed": false,
          "internalType": "string",
          "name": "campaignType",
          "type": "string"
        }
      ],
      "name": "NewPayPerClickCampaignOpen",
      "type": "event"
    },
    {
      "anonymous": false,
      "inputs": [
        {
          "indexed": false,
          "internalType": "uint256",
          "name": "date",
          "type": "uint256"
        },
        {
          "indexed": false,
          "internalType": "string",
          "name": "website",
          "type": "string"
        },
        {
          "indexed": false,
          "internalType": "address",
          "name": "owner",
          "type": "address"
        },
        {
          "indexed": false,
          "internalType": "uint256",
          "name": "budget",
          "type": "uint256"
        },
        {
          "indexed": false,
          "internalType": "string",
          "name": "campaignType",
          "type": "string"
        }
      ],
      "name": "NewPayPerSaleCampaignOpen",
      "type": "event"
    },
    {
      "anonymous": false,
      "inputs": [
        {
          "indexed": true,
          "internalType": "address",
          "name": "previousOwner",
          "type": "address"
        },
        {
          "indexed": true,
          "internalType": "address",
          "name": "newOwner",
          "type": "address"
        }
      ],
      "name": "OwnershipTransferred",
      "type": "event"
    },
    {
      "constant": true,
      "inputs": [
        {
          "internalType": "address",
          "name": "",
          "type": "address"
        }
      ],
      "name": "campaign_owner_account_balance",
      "outputs": [
        {
          "internalType": "uint256",
          "name": "",
          "type": "uint256"
        }
      ],
      "payable": false,
      "stateMutability": "view",
      "type": "function"
    },
    {
      "constant": true,
      "inputs": [
        {
          "internalType": "address",
          "name": "",
          "type": "address"
        }
      ],
      "name": "influencer_account_balance",
      "outputs": [
        {
          "internalType": "uint256",
          "name": "",
          "type": "uint256"
        }
      ],
      "payable": false,
      "stateMutability": "view",
      "type": "function"
    },
    {
      "constant": true,
      "inputs": [
        {
          "internalType": "string",
          "name": "",
          "type": "string"
        }
      ],
      "name": "influencers",
      "outputs": [
        {
          "internalType": "address",
          "name": "addr",
          "type": "address"
        },
        {
          "internalType": "address",
          "name": "owner_address",
          "type": "address"
        },
        {
          "internalType": "string",
          "name": "owner_website",
          "type": "string"
        },
        {
          "internalType": "uint256",
          "name": "reward",
          "type": "uint256"
        },
        {
          "internalType": "string",
          "name": "referral_link",
          "type": "string"
        }
      ],
      "payable": false,
      "stateMutability": "view",
      "type": "function"
    },
    {
      "constant": true,
      "inputs": [],
      "name": "isOwner",
      "outputs": [
        {
          "internalType": "bool",
          "name": "",
          "type": "bool"
        }
      ],
      "payable": false,
      "stateMutability": "view",
      "type": "function"
    },
    {
      "constant": true,
      "inputs": [],
      "name": "owner",
      "outputs": [
        {
          "internalType": "address",
          "name": "",
          "type": "address"
        }
      ],
      "payable": false,
      "stateMutability": "view",
      "type": "function"
    },
    {
      "constant": true,
      "inputs": [
        {
          "internalType": "address",
          "name": "",
          "type": "address"
        },
        {
          "internalType": "uint256",
          "name": "",
          "type": "uint256"
        }
      ],
      "name": "referral_campaign_collection",
      "outputs": [
        {
          "internalType": "string",
          "name": "campaignType",
          "type": "string"
        },
        {
          "internalType": "string",
          "name": "website",
          "type": "string"
        },
        {
          "internalType": "uint256",
          "name": "campaignBudget",
          "type": "uint256"
        },
        {
          "internalType": "uint256",
          "name": "campaignReward",
          "type": "uint256"
        },
        {
          "internalType": "bool",
          "name": "isActive",
          "type": "bool"
        },
        {
          "internalType": "uint256",
          "name": "remainingBudget",
          "type": "uint256"
        }
      ],
      "payable": false,
      "stateMutability": "view",
      "type": "function"
    },
    {
      "constant": false,
      "inputs": [],
      "name": "renounceOwnership",
      "outputs": [],
      "payable": false,
      "stateMutability": "nonpayable",
      "type": "function"
    },
    {
      "constant": false,
      "inputs": [
        {
          "internalType": "address",
          "name": "newOwner",
          "type": "address"
        }
      ],
      "name": "transferOwnership",
      "outputs": [],
      "payable": false,
      "stateMutability": "nonpayable",
      "type": "function"
    },
    {
      "constant": true,
      "inputs": [
        {
          "internalType": "string",
          "name": "_link",
          "type": "string"
        }
      ],
      "name": "getBalanceOfLinkToInfluencer",
      "outputs": [
        {
          "internalType": "uint256",
          "name": "",
          "type": "uint256"
        }
      ],
      "payable": false,
      "stateMutability": "view",
      "type": "function"
    },
    {
      "constant": true,
      "inputs": [
        {
          "internalType": "address",
          "name": "_addr",
          "type": "address"
        }
      ],
      "name": "getInfluencerBalance",
      "outputs": [
        {
          "internalType": "uint256",
          "name": "",
          "type": "uint256"
        }
      ],
      "payable": false,
      "stateMutability": "view",
      "type": "function"
    },
    {
      "constant": true,
      "inputs": [
        {
          "internalType": "address",
          "name": "_addr",
          "type": "address"
        }
      ],
      "name": "getOwnerBalance",
      "outputs": [
        {
          "internalType": "uint256",
          "name": "",
          "type": "uint256"
        }
      ],
      "payable": false,
      "stateMutability": "view",
      "type": "function"
    },
    {
      "constant": false,
      "inputs": [
        {
          "internalType": "string",
          "name": "_website",
          "type": "string"
        },
        {
          "internalType": "string",
          "name": "_referral_link",
          "type": "string"
        },
        {
          "internalType": "address",
          "name": "_owner",
          "type": "address"
        }
      ],
      "name": "addInfluencer",
      "outputs": [
        {
          "internalType": "bool",
          "name": "",
          "type": "bool"
        }
      ],
      "payable": false,
      "stateMutability": "nonpayable",
      "type": "function"
    },
    {
      "constant": false,
      "inputs": [
        {
          "internalType": "uint256",
          "name": "_campaignBudget",
          "type": "uint256"
        },
        {
          "internalType": "uint256",
          "name": "_campaignReward",
          "type": "uint256"
        },
        {
          "internalType": "string",
          "name": "_website",
          "type": "string"
        },
        {
          "internalType": "string",
          "name": "_campaignType",
          "type": "string"
        }
      ],
      "name": "openPayPerClickReferralCampaign",
      "outputs": [
        {
          "internalType": "uint256",
          "name": "",
          "type": "uint256"
        }
      ],
      "payable": true,
      "stateMutability": "payable",
      "type": "function"
    },
    {
      "constant": false,
      "inputs": [
        {
          "internalType": "uint256",
          "name": "_campaignBudget",
          "type": "uint256"
        },
        {
          "internalType": "string",
          "name": "_website",
          "type": "string"
        },
        {
          "internalType": "string",
          "name": "_campaignType",
          "type": "string"
        }
      ],
      "name": "openPayPerSalekReferralCampaign",
      "outputs": [
        {
          "internalType": "uint256",
          "name": "",
          "type": "uint256"
        }
      ],
      "payable": true,
      "stateMutability": "payable",
      "type": "function"
    },
    {
      "constant": false,
      "inputs": [
        {
          "internalType": "string",
          "name": "_referral_link",
          "type": "string"
        },
        {
          "internalType": "string",
          "name": "_website",
          "type": "string"
        },
        {
          "internalType": "address",
          "name": "_from",
          "type": "address"
        },
        {
          "internalType": "address",
          "name": "_to",
          "type": "address"
        }
      ],
      "name": "forwardPayPerClickRewards",
      "outputs": [
        {
          "internalType": "uint256",
          "name": "_campaign_owner_balance",
          "type": "uint256"
        },
        {
          "internalType": "uint256",
          "name": "_influencer_balance",
          "type": "uint256"
        }
      ],
      "payable": false,
      "stateMutability": "nonpayable",
      "type": "function"
    },
    {
      "constant": false,
      "inputs": [
        {
          "internalType": "string",
          "name": "_website",
          "type": "string"
        },
        {
          "internalType": "address",
          "name": "_from",
          "type": "address"
        },
        {
          "internalType": "address",
          "name": "_to",
          "type": "address"
        },
        {
          "internalType": "uint256",
          "name": "_itemReward",
          "type": "uint256"
        }
      ],
      "name": "forwardPayPerSaleRewards",
      "outputs": [
        {
          "internalType": "uint256",
          "name": "_campaign_owner_balance",
          "type": "uint256"
        },
        {
          "internalType": "uint256",
          "name": "_influencer_balance",
          "type": "uint256"
        }
      ],
      "payable": false,
      "stateMutability": "nonpayable",
      "type": "function"
    },
    {
      "constant": false,
      "inputs": [
        {
          "internalType": "string",
          "name": "_website",
          "type": "string"
        }
      ],
      "name": "withdrawFromCampaign",
      "outputs": [
        {
          "internalType": "uint256",
          "name": "",
          "type": "uint256"
        }
      ],
      "payable": true,
      "stateMutability": "payable",
      "type": "function"
    },
    {
      "constant": false,
      "inputs": [],
      "name": "influencerWithdraw",
      "outputs": [
        {
          "internalType": "uint256",
          "name": "",
          "type": "uint256"
        }
      ],
      "payable": true,
      "stateMutability": "payable",
      "type": "function"
    },
    {
      "constant": true,
      "inputs": [
        {
          "internalType": "address",
          "name": "_account_address",
          "type": "address"
        }
      ],
      "name": "lookupCampaignReferralsCollectionLength",
      "outputs": [
        {
          "internalType": "uint256",
          "name": "",
          "type": "uint256"
        }
      ],
      "payable": false,
      "stateMutability": "view",
      "type": "function"
    },
    {
      "constant": true,
      "inputs": [
        {
          "internalType": "address",
          "name": "_account_address",
          "type": "address"
        },
        {
          "internalType": "uint256",
          "name": "_index",
          "type": "uint256"
        }
      ],
      "name": "lookUpCampaignReferral",
      "outputs": [
        {
          "internalType": "string",
          "name": "",
          "type": "string"
        },
        {
          "internalType": "uint256",
          "name": "",
          "type": "uint256"
        },
        {
          "internalType": "uint256",
          "name": "",
          "type": "uint256"
        },
        {
          "internalType": "bool",
          "name": "",
          "type": "bool"
        },
        {
          "internalType": "string",
          "name": "",
          "type": "string"
        },
        {
          "internalType": "address[]",
          "name": "",
          "type": "address[]"
        }
      ],
      "payable": false,
      "stateMutability": "view",
      "type": "function"
    },
    {
      "constant": true,
      "inputs": [
        {
          "internalType": "address",
          "name": "_address",
          "type": "address"
        },
        {
          "internalType": "string",
          "name": "_website",
          "type": "string"
        }
      ],
      "name": "lookUpCampaignRemainingBudget",
      "outputs": [
        {
          "internalType": "uint256",
          "name": "",
          "type": "uint256"
        }
      ],
      "payable": false,
      "stateMutability": "view",
      "type": "function"
    },
    {
      "constant": true,
      "inputs": [
        {
          "internalType": "address",
          "name": "_account_address",
          "type": "address"
        },
        {
          "internalType": "string",
          "name": "_website",
          "type": "string"
        }
      ],
      "name": "lookUpCampaignReferralByWebsite",
      "outputs": [
        {
          "internalType": "uint256",
          "name": "",
          "type": "uint256"
        },
        {
          "internalType": "address[]",
          "name": "",
          "type": "address[]"
        }
      ],
      "payable": false,
      "stateMutability": "view",
      "type": "function"
    },
    {
      "constant": true,
      "inputs": [
        {
          "internalType": "address",
          "name": "_address",
          "type": "address"
        },
        {
          "internalType": "string",
          "name": "_website",
          "type": "string"
        }
      ],
      "name": "helper_selectReferralCampaign",
      "outputs": [
        {
          "internalType": "uint256",
          "name": "",
          "type": "uint256"
        },
        {
          "internalType": "bool",
          "name": "",
          "type": "bool"
        }
      ],
      "payable": false,
      "stateMutability": "view",
      "type": "function"
    },
    {
      "constant": true,
      "inputs": [
        {
          "internalType": "string",
          "name": "a",
          "type": "string"
        },
        {
          "internalType": "string",
          "name": "b",
          "type": "string"
        }
      ],
      "name": "helper_compareStrings",
      "outputs": [
        {
          "internalType": "bool",
          "name": "",
          "type": "bool"
        }
      ],
      "payable": false,
      "stateMutability": "pure",
      "type": "function"
    }
  ],
  "bytecode": "0x608060405262000014620000d560201b60201c565b6000806101000a81548173ffffffffffffffffffffffffffffffffffffffff021916908373ffffffffffffffffffffffffffffffffffffffff1602179055506000809054906101000a900473ffffffffffffffffffffffffffffffffffffffff1673ffffffffffffffffffffffffffffffffffffffff16600073ffffffffffffffffffffffffffffffffffffffff167f8be0079c531659141344cd1fd0a4f28419497f9722a3daafe3b4186f6b6457e060405160405180910390a3620000dd565b600033905090565b6155a980620000ed6000396000f3fe60806040526004361061014b5760003560e01c8063a0f6256d116100b6578063d8531dee1161006f578063d8531dee14611317578063dc63775f14611413578063eb994b4914611478578063f2fde38b14611547578063f425c5a414611598578063fa106313146116dc5761014b565b8063a0f6256d14610bba578063b9efd93c14610ce7578063ba13c92414610e88578063c418612014610fe8578063cf1fa45d14611006578063d1bd0a171461119d5761014b565b80636f14fbed116101085780636f14fbed1461094c578063715018a614610a535780637fcf440a14610a6a5780638da5cb5b14610acf5780638f32d59b14610b265780639adfccb314610b555761014b565b806303049631146101505780631b0737611461030a5780632f1f56021461047a5780634ba172741461055657806364c15317146105bb5780636995beb314610732575b600080fd5b34801561015c57600080fd5b506102ed6004803603608081101561017357600080fd5b810190808035906020019064010000000081111561019057600080fd5b8201836020820111156101a257600080fd5b803590602001918460018302840111640100000000831117156101c457600080fd5b91908080601f016020809104026020016040519081016040528093929190818152602001838380828437600081840152601f19601f8201169050808301925050505050505091929192908035906020019064010000000081111561022757600080fd5b82018360208201111561023957600080fd5b8035906020019184600183028401116401000000008311171561025b57600080fd5b91908080601f016020809104026020016040519081016040528093929190818152602001838380828437600081840152601f19601f820116905080830192505050505050509192919290803573ffffffffffffffffffffffffffffffffffffffff169060200190929190803573ffffffffffffffffffffffffffffffffffffffff169060200190929190505050611741565b604051808381526020018281526020019250505060405180910390f35b6104646004803603606081101561032057600080fd5b81019080803590602001909291908035906020019064010000000081111561034757600080fd5b82018360208201111561035957600080fd5b8035906020019184600183028401116401000000008311171561037b57600080fd5b91908080601f016020809104026020016040519081016040528093929190818152602001838380828437600081840152601f19601f820116905080830192505050505050509192919290803590602001906401000000008111156103de57600080fd5b8201836020820111156103f057600080fd5b8035906020019184600183028401116401000000008311171561041257600080fd5b91908080601f016020809104026020016040519081016040528093929190818152602001838380828437600081840152601f19601f820116905080830192505050505050509192919290505050611f9e565b6040518082815260200191505060405180910390f35b34801561048657600080fd5b506105406004803603602081101561049d57600080fd5b81019080803590602001906401000000008111156104ba57600080fd5b8201836020820111156104cc57600080fd5b803590602001918460018302840111640100000000831117156104ee57600080fd5b91908080601f016020809104026020016040519081016040528093929190818152602001838380828437600081840152601f19601f8201169050808301925050505050505091929192905050506123fd565b6040518082815260200191505060405180910390f35b34801561056257600080fd5b506105a56004803603602081101561057957600080fd5b81019080803573ffffffffffffffffffffffffffffffffffffffff1690602001909291905050506126c9565b6040518082815260200191505060405180910390f35b3480156105c757600080fd5b50610718600480360360408110156105de57600080fd5b81019080803590602001906401000000008111156105fb57600080fd5b82018360208201111561060d57600080fd5b8035906020019184600183028401116401000000008311171561062f57600080fd5b91908080601f016020809104026020016040519081016040528093929190818152602001838380828437600081840152601f19601f8201169050808301925050505050505091929192908035906020019064010000000081111561069257600080fd5b8201836020820111156106a457600080fd5b803590602001918460018302840111640100000000831117156106c657600080fd5b91908080601f016020809104026020016040519081016040528093929190818152602001838380828437600081840152601f19601f820116905080830192505050505050509192919290505050612712565b604051808215151515815260200191505060405180910390f35b34801561073e57600080fd5b506107f86004803603602081101561075557600080fd5b810190808035906020019064010000000081111561077257600080fd5b82018360208201111561078457600080fd5b803590602001918460018302840111640100000000831117156107a657600080fd5b91908080601f016020809104026020016040519081016040528093929190818152602001838380828437600081840152601f19601f820116905080830192505050505050509192919290505050612801565b604051808673ffffffffffffffffffffffffffffffffffffffff1673ffffffffffffffffffffffffffffffffffffffff1681526020018573ffffffffffffffffffffffffffffffffffffffff1673ffffffffffffffffffffffffffffffffffffffff1681526020018060200184815260200180602001838103835286818151815260200191508051906020019080838360005b838110156108a657808201518184015260208101905061088b565b50505050905090810190601f1680156108d35780820380516001836020036101000a031916815260200191505b50838103825284818151815260200191508051906020019080838360005b8381101561090c5780820151818401526020810190506108f1565b50505050905090810190601f1680156109395780820380516001836020036101000a031916815260200191505b5097505050505050505060405180910390f35b34801561095857600080fd5b50610a326004803603604081101561096f57600080fd5b81019080803573ffffffffffffffffffffffffffffffffffffffff169060200190929190803590602001906401000000008111156109ac57600080fd5b8201836020820111156109be57600080fd5b803590602001918460018302840111640100000000831117156109e057600080fd5b91908080601f016020809104026020016040519081016040528093929190818152602001838380828437600081840152601f19601f8201169050808301925050505050505091929192905050506129bd565b60405180838152602001821515151581526020019250505060405180910390f35b348015610a5f57600080fd5b50610a68612b4e565b005b348015610a7657600080fd5b50610ab960048036036020811015610a8d57600080fd5b81019080803573ffffffffffffffffffffffffffffffffffffffff169060200190929190505050612c87565b6040518082815260200191505060405180910390f35b348015610adb57600080fd5b50610ae4612cd0565b604051808273ffffffffffffffffffffffffffffffffffffffff1673ffffffffffffffffffffffffffffffffffffffff16815260200191505060405180910390f35b348015610b3257600080fd5b50610b3b612cf9565b604051808215151515815260200191505060405180910390f35b348015610b6157600080fd5b50610ba460048036036020811015610b7857600080fd5b81019080803573ffffffffffffffffffffffffffffffffffffffff169060200190929190505050612d57565b6040518082815260200191505060405180910390f35b348015610bc657600080fd5b50610cca60048036036080811015610bdd57600080fd5b8101908080359060200190640100000000811115610bfa57600080fd5b820183602082011115610c0c57600080fd5b80359060200191846001830284011164010000000083111715610c2e57600080fd5b91908080601f016020809104026020016040519081016040528093929190818152602001838380828437600081840152601f19601f820116905080830192505050505050509192919290803573ffffffffffffffffffffffffffffffffffffffff169060200190929190803573ffffffffffffffffffffffffffffffffffffffff16906020019092919080359060200190929190505050612d6f565b604051808381526020018281526020019250505060405180910390f35b348015610cf357600080fd5b50610d4060048036036040811015610d0a57600080fd5b81019080803573ffffffffffffffffffffffffffffffffffffffff16906020019092919080359060200190929190505050613344565b604051808060200187815260200186815260200185151515158152602001806020018060200184810384528a818151815260200191508051906020019080838360005b83811015610d9e578082015181840152602081019050610d83565b50505050905090810190601f168015610dcb5780820380516001836020036101000a031916815260200191505b50848103835286818151815260200191508051906020019080838360005b83811015610e04578082015181840152602081019050610de9565b50505050905090810190601f168015610e315780820380516001836020036101000a031916815260200191505b50848103825285818151815260200191508051906020019060200280838360005b83811015610e6d578082015181840152602081019050610e52565b50505050905001995050505050505050505060405180910390f35b348015610e9457600080fd5b50610ee160048036036040811015610eab57600080fd5b81019080803573ffffffffffffffffffffffffffffffffffffffff16906020019092919080359060200190929190505050613940565b60405180806020018060200187815260200186815260200185151515158152602001848152602001838103835289818151815260200191508051906020019080838360005b83811015610f41578082015181840152602081019050610f26565b50505050905090810190601f168015610f6e5780820380516001836020036101000a031916815260200191505b50838103825288818151815260200191508051906020019080838360005b83811015610fa7578082015181840152602081019050610f8c565b50505050905090810190601f168015610fd45780820380516001836020036101000a031916815260200191505b509850505050505050505060405180910390f35b610ff0613ad3565b6040518082815260200191505060405180910390f35b34801561101257600080fd5b506111836004803603606081101561102957600080fd5b810190808035906020019064010000000081111561104657600080fd5b82018360208201111561105857600080fd5b8035906020019184600183028401116401000000008311171561107a57600080fd5b91908080601f016020809104026020016040519081016040528093929190818152602001838380828437600081840152601f19601f820116905080830192505050505050509192919290803590602001906401000000008111156110dd57600080fd5b8201836020820111156110ef57600080fd5b8035906020019184600183028401116401000000008311171561111157600080fd5b91908080601f016020809104026020016040519081016040528093929190818152602001838380828437600081840152601f19601f820116905080830192505050505050509192919290803573ffffffffffffffffffffffffffffffffffffffff169060200190929190505050613c30565b604051808215151515815260200191505060405180910390f35b611301600480360360808110156111b357600080fd5b810190808035906020019092919080359060200190929190803590602001906401000000008111156111e457600080fd5b8201836020820111156111f657600080fd5b8035906020019184600183028401116401000000008311171561121857600080fd5b91908080601f016020809104026020016040519081016040528093929190818152602001838380828437600081840152601f19601f8201169050808301925050505050505091929192908035906020019064010000000081111561127b57600080fd5b82018360208201111561128d57600080fd5b803590602001918460018302840111640100000000831117156112af57600080fd5b91908080601f016020809104026020016040519081016040528093929190818152602001838380828437600081840152601f19601f820116905080830192505050505050509192919290505050613f2f565b6040518082815260200191505060405180910390f35b34801561132357600080fd5b506113fd6004803603604081101561133a57600080fd5b81019080803573ffffffffffffffffffffffffffffffffffffffff1690602001909291908035906020019064010000000081111561137757600080fd5b82018360208201111561138957600080fd5b803590602001918460018302840111640100000000831117156113ab57600080fd5b91908080601f016020809104026020016040519081016040528093929190818152602001838380828437600081840152601f19601f820116905080830192505050505050509192919290505050614396565b6040518082815260200191505060405180910390f35b34801561141f57600080fd5b506114626004803603602081101561143657600080fd5b81019080803573ffffffffffffffffffffffffffffffffffffffff169060200190929190505050614498565b6040518082815260200191505060405180910390f35b6115316004803603602081101561148e57600080fd5b81019080803590602001906401000000008111156114ab57600080fd5b8201836020820111156114bd57600080fd5b803590602001918460018302840111640100000000831117156114df57600080fd5b91908080601f016020809104026020016040519081016040528093929190818152602001838380828437600081840152601f19601f82011690508083019250505050505050919291929050505061454d565b6040518082815260200191505060405180910390f35b34801561155357600080fd5b506115966004803603602081101561156a57600080fd5b81019080803573ffffffffffffffffffffffffffffffffffffffff169060200190929190505050614979565b005b3480156115a457600080fd5b5061167e600480360360408110156115bb57600080fd5b81019080803573ffffffffffffffffffffffffffffffffffffffff169060200190929190803590602001906401000000008111156115f857600080fd5b82018360208201111561160a57600080fd5b8035906020019184600183028401116401000000008311171561162c57600080fd5b91908080601f016020809104026020016040519081016040528093929190818152602001838380828437600081840152601f19601f8201169050808301925050505050505091929192905050506149ff565b6040518083815260200180602001828103825283818151815260200191508051906020019060200280838360005b838110156116c75780820151818401526020810190506116ac565b50505050905001935050505060405180910390f35b3480156116e857600080fd5b5061172b600480360360208110156116ff57600080fd5b81019080803573ffffffffffffffffffffffffffffffffffffffff169060200190929190505050614fc5565b6040518082815260200191505060405180910390f35b60008061174c612cf9565b6117be576040517f08c379a00000000000000000000000000000000000000000000000000000000081526004018080602001828103825260208152602001807f4f776e61626c653a2063616c6c6572206973206e6f7420746865206f776e657281525060200191505060405180910390fd5b6000806117cb86886129bd565b915091506001151581151514801561188d57506001886040518082805190602001908083835b6020831061181457805182526020820191506020810190506020830392506117f1565b6001836020036101000a038019825116818451168082178552505050505050905001915050908152602001604051809103902060030154600260008873ffffffffffffffffffffffffffffffffffffffff1673ffffffffffffffffffffffffffffffffffffffff16815260200190815260200160002054115b8015611905575060011515600460008873ffffffffffffffffffffffffffffffffffffffff1673ffffffffffffffffffffffffffffffffffffffff16815260200190815260200160002083815481106118e257fe5b906000526020600020906007020160050160009054906101000a900460ff161515145b80156119fc5750600260008773ffffffffffffffffffffffffffffffffffffffff1673ffffffffffffffffffffffffffffffffffffffff168152602001908152602001600020546001896040518082805190602001908083835b60208310611982578051825260208201915060208101905060208303925061195f565b6001836020036101000a038019825116818451168082178552505050505050905001915050908152602001604051809103902060030154600260008973ffffffffffffffffffffffffffffffffffffffff1673ffffffffffffffffffffffffffffffffffffffff1681526020019081526020016000205403105b611a0557600080fd5b6001886040518082805190602001908083835b60208310611a3b5780518252602082019150602081019050602083039250611a18565b6001836020036101000a038019825116818451168082178552505050505050905001915050908152602001604051809103902060030154600460008873ffffffffffffffffffffffffffffffffffffffff1673ffffffffffffffffffffffffffffffffffffffff1681526020019081526020016000208381548110611abc57fe5b9060005260206000209060070201600601541115611e9a57611bae6001896040518082805190602001908083835b60208310611b0d5780518252602082019150602081019050602083039250611aea565b6001836020036101000a038019825116818451168082178552505050505050905001915050908152602001604051809103902060030154600460008973ffffffffffffffffffffffffffffffffffffffff1673ffffffffffffffffffffffffffffffffffffffff1681526020019081526020016000208481548110611b8e57fe5b906000526020600020906007020160060154614fdd90919063ffffffff16565b600460008873ffffffffffffffffffffffffffffffffffffffff1673ffffffffffffffffffffffffffffffffffffffff1681526020019081526020016000208381548110611bf857fe5b906000526020600020906007020160060181905550611ccb6001896040518082805190602001908083835b60208310611c465780518252602082019150602081019050602083039250611c23565b6001836020036101000a038019825116818451168082178552505050505050905001915050908152602001604051809103902060030154600260008973ffffffffffffffffffffffffffffffffffffffff1673ffffffffffffffffffffffffffffffffffffffff16815260200190815260200160002054614fdd90919063ffffffff16565b600260008873ffffffffffffffffffffffffffffffffffffffff1673ffffffffffffffffffffffffffffffffffffffff16815260200190815260200160002081905550611dcc6001896040518082805190602001908083835b60208310611d475780518252602082019150602081019050602083039250611d24565b6001836020036101000a038019825116818451168082178552505050505050905001915050908152602001604051809103902060030154600360008873ffffffffffffffffffffffffffffffffffffffff1673ffffffffffffffffffffffffffffffffffffffff1681526020019081526020016000205461502790919063ffffffff16565b600360008773ffffffffffffffffffffffffffffffffffffffff1673ffffffffffffffffffffffffffffffffffffffff16815260200190815260200160002081905550600260008773ffffffffffffffffffffffffffffffffffffffff1673ffffffffffffffffffffffffffffffffffffffff16815260200190815260200160002054600360008773ffffffffffffffffffffffffffffffffffffffff1673ffffffffffffffffffffffffffffffffffffffff16815260200190815260200160002054935093505050611f95565b6000600460008873ffffffffffffffffffffffffffffffffffffffff1673ffffffffffffffffffffffffffffffffffffffff1681526020019081526020016000208381548110611ee657fe5b906000526020600020906007020160050160006101000a81548160ff021916908315150217905550600260008773ffffffffffffffffffffffffffffffffffffffff1673ffffffffffffffffffffffffffffffffffffffff16815260200190815260200160002054600360008773ffffffffffffffffffffffffffffffffffffffff1673ffffffffffffffffffffffffffffffffffffffff168152602001908152602001600020549350935050505b94509492505050565b600060606040518060400160405280600481526020017f73616c6500000000000000000000000000000000000000000000000000000000815250905084341480156120685750600260003373ffffffffffffffffffffffffffffffffffffffff1673ffffffffffffffffffffffffffffffffffffffff1681526020019081526020016000205434600260003373ffffffffffffffffffffffffffffffffffffffff1673ffffffffffffffffffffffffffffffffffffffff1681526020019081526020016000205401115b801561207a57506120798184612712565b5b61208357600080fd5b61208b6152bb565b83816000018190525084816020018190525085816040018181525050600081606001818152505060018160a0019015159081151581525050858160c001818152505061211f34600260003373ffffffffffffffffffffffffffffffffffffffff1673ffffffffffffffffffffffffffffffffffffffff1681526020019081526020016000205461502790919063ffffffff16565b600260003373ffffffffffffffffffffffffffffffffffffffff1673ffffffffffffffffffffffffffffffffffffffff16815260200190815260200160002081905550600460003373ffffffffffffffffffffffffffffffffffffffff1673ffffffffffffffffffffffffffffffffffffffff168152602001908152602001600020819080600181540180825580915050906001820390600052602060002090600702016000909192909190915060008201518160000190805190602001906121e99291906152fa565b5060208201518160010190805190602001906122069291906152fa565b506040820151816002015560608201518160030155608082015181600401908051906020019061223792919061537a565b5060a08201518160050160006101000a81548160ff02191690831515021790555060c082015181600601555050507f1a0159149e3b506336c75e8c6ddbeb1e5cd7ff41ccf1efaf18713a31284dc1f1428633898860405180868152602001806020018573ffffffffffffffffffffffffffffffffffffffff1673ffffffffffffffffffffffffffffffffffffffff16815260200184815260200180602001838103835287818151815260200191508051906020019080838360005b8381101561230d5780820151818401526020810190506122f2565b50505050905090810190601f16801561233a5780820380516001836020036101000a031916815260200191505b50838103825284818151815260200191508051906020019080838360005b83811015612373578082015181840152602081019050612358565b50505050905090810190601f1680156123a05780820380516001836020036101000a031916815260200191505b5097505050505050505060405180910390a1600260003373ffffffffffffffffffffffffffffffffffffffff1673ffffffffffffffffffffffffffffffffffffffff16815260200190815260200160002054925050509392505050565b60006124076153da565b6001836040518082805190602001908083835b6020831061243d578051825260208201915060208101905060208303925061241a565b6001836020036101000a03801982511681845116808217855250505050505090500191505090815260200160405180910390206040518060a00160405290816000820160009054906101000a900473ffffffffffffffffffffffffffffffffffffffff1673ffffffffffffffffffffffffffffffffffffffff1673ffffffffffffffffffffffffffffffffffffffff1681526020016001820160009054906101000a900473ffffffffffffffffffffffffffffffffffffffff1673ffffffffffffffffffffffffffffffffffffffff1673ffffffffffffffffffffffffffffffffffffffff168152602001600282018054600181600116156101000203166002900480601f0160208091040260200160405190810160405280929190818152602001828054600181600116156101000203166002900480156125c05780601f10612595576101008083540402835291602001916125c0565b820191906000526020600020905b8154815290600101906020018083116125a357829003601f168201915b5050505050815260200160038201548152602001600482018054600181600116156101000203166002900480601f01602080910402602001604051908101604052809291908181526020018280546001816001161561010002031660029004801561266c5780601f106126415761010080835404028352916020019161266c565b820191906000526020600020905b81548152906001019060200180831161264f57829003601f168201915b5050505050815250509050600081600001519050600360008273ffffffffffffffffffffffffffffffffffffffff1673ffffffffffffffffffffffffffffffffffffffff1681526020019081526020016000205492505050919050565b6000600360008373ffffffffffffffffffffffffffffffffffffffff1673ffffffffffffffffffffffffffffffffffffffff168152602001908152602001600020549050919050565b6000816040516020018082805190602001908083835b6020831061274b5780518252602082019150602081019050602083039250612728565b6001836020036101000a03801982511681845116808217855250505050505090500191505060405160208183030381529060405280519060200120836040516020018082805190602001908083835b602083106127bd578051825260208201915060208101905060208303925061279a565b6001836020036101000a0380198251168184511680821785525050505050509050019150506040516020818303038152906040528051906020012014905092915050565b6001818051602081018201805184825260208301602085012081835280955050505050506000915090508060000160009054906101000a900473ffffffffffffffffffffffffffffffffffffffff16908060010160009054906101000a900473ffffffffffffffffffffffffffffffffffffffff1690806002018054600181600116156101000203166002900480601f01602080910402602001604051908101604052809291908181526020018280546001816001161561010002031660029004801561290f5780601f106128e45761010080835404028352916020019161290f565b820191906000526020600020905b8154815290600101906020018083116128f257829003601f168201915b505050505090806003015490806004018054600181600116156101000203166002900480601f0160208091040260200160405190810160405280929190818152602001828054600181600116156101000203166002900480156129b35780601f10612988576101008083540402835291602001916129b3565b820191906000526020600020905b81548152906001019060200180831161299657829003601f168201915b5050505050905085565b6000806000809050600080905060008090505b600460008873ffffffffffffffffffffffffffffffffffffffff1673ffffffffffffffffffffffffffffffffffffffff16815260200190815260200160002080549050811015612b3e576060600460008973ffffffffffffffffffffffffffffffffffffffff1673ffffffffffffffffffffffffffffffffffffffff1681526020019081526020016000208281548110612a6657fe5b90600052602060002090600702016001018054600181600116156101000203166002900480601f016020809104026020016040519081016040528092919081815260200182805460018160011615610100020316600290048015612b0b5780601f10612ae057610100808354040283529160200191612b0b565b820191906000526020600020905b815481529060010190602001808311612aee57829003601f168201915b50505050509050868051906020012081805190602001201415612b3057819350600192505b5080806001019150506129d0565b5081819350935050509250929050565b612b56612cf9565b612bc8576040517f08c379a00000000000000000000000000000000000000000000000000000000081526004018080602001828103825260208152602001807f4f776e61626c653a2063616c6c6572206973206e6f7420746865206f776e657281525060200191505060405180910390fd5b600073ffffffffffffffffffffffffffffffffffffffff166000809054906101000a900473ffffffffffffffffffffffffffffffffffffffff1673ffffffffffffffffffffffffffffffffffffffff167f8be0079c531659141344cd1fd0a4f28419497f9722a3daafe3b4186f6b6457e060405160405180910390a360008060006101000a81548173ffffffffffffffffffffffffffffffffffffffff021916908373ffffffffffffffffffffffffffffffffffffffff160217905550565b6000600260008373ffffffffffffffffffffffffffffffffffffffff1673ffffffffffffffffffffffffffffffffffffffff168152602001908152602001600020549050919050565b60008060009054906101000a900473ffffffffffffffffffffffffffffffffffffffff16905090565b60008060009054906101000a900473ffffffffffffffffffffffffffffffffffffffff1673ffffffffffffffffffffffffffffffffffffffff16612d3b6150af565b73ffffffffffffffffffffffffffffffffffffffff1614905090565b60036020528060005260406000206000915090505481565b600080612d7a612cf9565b612dec576040517f08c379a00000000000000000000000000000000000000000000000000000000081526004018080602001828103825260208152602001807f4f776e61626c653a2063616c6c6572206973206e6f7420746865206f776e657281525060200191505060405180910390fd5b600080612df987896129bd565b9150915060011515811515148015612e4f575084600260008973ffffffffffffffffffffffffffffffffffffffff1673ffffffffffffffffffffffffffffffffffffffff16815260200190815260200160002054115b8015612ec7575060011515600460008973ffffffffffffffffffffffffffffffffffffffff1673ffffffffffffffffffffffffffffffffffffffff1681526020019081526020016000208381548110612ea457fe5b906000526020600020906007020160050160009054906101000a900460ff161515145b8015612f525750600260008873ffffffffffffffffffffffffffffffffffffffff1673ffffffffffffffffffffffffffffffffffffffff1681526020019081526020016000205485600260008a73ffffffffffffffffffffffffffffffffffffffff1673ffffffffffffffffffffffffffffffffffffffff1681526020019081526020016000205403105b612f5b57600080fd5b84600460008973ffffffffffffffffffffffffffffffffffffffff1673ffffffffffffffffffffffffffffffffffffffff1681526020019081526020016000208381548110612fa657fe5b90600052602060002090600702016006015411156132405761302c85600460008a73ffffffffffffffffffffffffffffffffffffffff1673ffffffffffffffffffffffffffffffffffffffff168152602001908152602001600020848154811061300c57fe5b906000526020600020906007020160060154614fdd90919063ffffffff16565b600460008973ffffffffffffffffffffffffffffffffffffffff1673ffffffffffffffffffffffffffffffffffffffff168152602001908152602001600020838154811061307657fe5b9060005260206000209060070201600601819055506130dd85600260008a73ffffffffffffffffffffffffffffffffffffffff1673ffffffffffffffffffffffffffffffffffffffff16815260200190815260200160002054614fdd90919063ffffffff16565b600260008973ffffffffffffffffffffffffffffffffffffffff1673ffffffffffffffffffffffffffffffffffffffff1681526020019081526020016000208190555061317285600360008973ffffffffffffffffffffffffffffffffffffffff1673ffffffffffffffffffffffffffffffffffffffff1681526020019081526020016000205461502790919063ffffffff16565b600360008873ffffffffffffffffffffffffffffffffffffffff1673ffffffffffffffffffffffffffffffffffffffff16815260200190815260200160002081905550600260008873ffffffffffffffffffffffffffffffffffffffff1673ffffffffffffffffffffffffffffffffffffffff16815260200190815260200160002054600360008873ffffffffffffffffffffffffffffffffffffffff1673ffffffffffffffffffffffffffffffffffffffff1681526020019081526020016000205493509350505061333b565b6000600460008973ffffffffffffffffffffffffffffffffffffffff1673ffffffffffffffffffffffffffffffffffffffff168152602001908152602001600020838154811061328c57fe5b906000526020600020906007020160050160006101000a81548160ff021916908315150217905550600260008873ffffffffffffffffffffffffffffffffffffffff1673ffffffffffffffffffffffffffffffffffffffff16815260200190815260200160002054600360008873ffffffffffffffffffffffffffffffffffffffff1673ffffffffffffffffffffffffffffffffffffffff168152602001908152602001600020549350935050505b94509492505050565b606060008060006060806000600460008a73ffffffffffffffffffffffffffffffffffffffff1673ffffffffffffffffffffffffffffffffffffffff168152602001908152602001600020888154811061339a57fe5b90600052602060002090600702016002015414156133b757600080fd5b6060600460008a73ffffffffffffffffffffffffffffffffffffffff1673ffffffffffffffffffffffffffffffffffffffff168152602001908152602001600020888154811061340357fe5b90600052602060002090600702016001018054600181600116156101000203166002900480601f0160208091040260200160405190810160405280929190818152602001828054600181600116156101000203166002900480156134a85780601f1061347d576101008083540402835291602001916134a8565b820191906000526020600020905b81548152906001019060200180831161348b57829003601f168201915b505050505090506060600460008b73ffffffffffffffffffffffffffffffffffffffff1673ffffffffffffffffffffffffffffffffffffffff16815260200190815260200160002089815481106134fb57fe5b90600052602060002090600702016000018054600181600116156101000203166002900480601f0160208091040260200160405190810160405280929190818152602001828054600181600116156101000203166002900480156135a05780601f10613575576101008083540402835291602001916135a0565b820191906000526020600020905b81548152906001019060200180831161358357829003601f168201915b505050505090506060600460008c73ffffffffffffffffffffffffffffffffffffffff1673ffffffffffffffffffffffffffffffffffffffff1681526020019081526020016000208a815481106135f357fe5b9060005260206000209060070201600401805490506040519080825280602002602001820160405280156136365781602001602082028038833980820191505090505b50905060008090505b600460008d73ffffffffffffffffffffffffffffffffffffffff1673ffffffffffffffffffffffffffffffffffffffff1681526020019081526020016000208b8154811061368957fe5b9060005260206000209060070201600401805490508110156138025760006001600460008f73ffffffffffffffffffffffffffffffffffffffff1673ffffffffffffffffffffffffffffffffffffffff1681526020019081526020016000208d815481106136f357fe5b9060005260206000209060070201600401838154811061370f57fe5b9060005260206000200160405180828054600181600116156101000203166002900480156137745780601f10613752576101008083540402835291820191613774565b820191906000526020600020905b815481529060010190602001808311613760575b5050915050908152602001604051809103902060000160009054906101000a900473ffffffffffffffffffffffffffffffffffffffff169050808383815181106137ba57fe5b602002602001019073ffffffffffffffffffffffffffffffffffffffff16908173ffffffffffffffffffffffffffffffffffffffff168152505050808060010191505061363f565b5082600460008d73ffffffffffffffffffffffffffffffffffffffff1673ffffffffffffffffffffffffffffffffffffffff1681526020019081526020016000208b8154811061384e57fe5b906000526020600020906007020160020154600460008e73ffffffffffffffffffffffffffffffffffffffff1673ffffffffffffffffffffffffffffffffffffffff1681526020019081526020016000208c815481106138aa57fe5b906000526020600020906007020160030154600460008f73ffffffffffffffffffffffffffffffffffffffff1673ffffffffffffffffffffffffffffffffffffffff1681526020019081526020016000208d8154811061390657fe5b906000526020600020906007020160050160009054906101000a900460ff1685859850985098509850985098505050509295509295509295565b6004602052816000526040600020818154811061395957fe5b906000526020600020906007020160009150915050806000018054600181600116156101000203166002900480601f016020809104026020016040519081016040528092919081815260200182805460018160011615610100020316600290048015613a065780601f106139db57610100808354040283529160200191613a06565b820191906000526020600020905b8154815290600101906020018083116139e957829003601f168201915b505050505090806001018054600181600116156101000203166002900480601f016020809104026020016040519081016040528092919081815260200182805460018160011615610100020316600290048015613aa45780601f10613a7957610100808354040283529160200191613aa4565b820191906000526020600020905b815481529060010190602001808311613a8757829003601f168201915b5050505050908060020154908060030154908060050160009054906101000a900460ff16908060060154905086565b600080600360003373ffffffffffffffffffffffffffffffffffffffff1673ffffffffffffffffffffffffffffffffffffffff1681526020019081526020016000205411613b2057600080fd5b3373ffffffffffffffffffffffffffffffffffffffff166108fc600360003373ffffffffffffffffffffffffffffffffffffffff1673ffffffffffffffffffffffffffffffffffffffff168152602001908152602001600020549081150290604051600060405180830381858888f19350505050158015613ba5573d6000803e3d6000fd5b506000600360003373ffffffffffffffffffffffffffffffffffffffff1673ffffffffffffffffffffffffffffffffffffffff16815260200190815260200160002081905550600360003373ffffffffffffffffffffffffffffffffffffffff1673ffffffffffffffffffffffffffffffffffffffff16815260200190815260200160002054905090565b6000806000613c3f84876129bd565b915091508015613f21576000600460008673ffffffffffffffffffffffffffffffffffffffff1673ffffffffffffffffffffffffffffffffffffffff1681526020019081526020016000208381548110613c9557fe5b9060005260206000209060070201600301549050613cb16153da565b33816000019073ffffffffffffffffffffffffffffffffffffffff16908173ffffffffffffffffffffffffffffffffffffffff168152505085816020019073ffffffffffffffffffffffffffffffffffffffff16908173ffffffffffffffffffffffffffffffffffffffff168152505087816040018190525081816060018181525050868160800181905250806001886040518082805190602001908083835b60208310613d745780518252602082019150602081019050602083039250613d51565b6001836020036101000a038019825116818451168082178552505050505050905001915050908152602001604051809103902060008201518160000160006101000a81548173ffffffffffffffffffffffffffffffffffffffff021916908373ffffffffffffffffffffffffffffffffffffffff16021790555060208201518160010160006101000a81548173ffffffffffffffffffffffffffffffffffffffff021916908373ffffffffffffffffffffffffffffffffffffffff1602179055506040820151816002019080519060200190613e519291906152fa565b50606082015181600301556080820151816004019080519060200190613e789291906152fa565b50905050600460008773ffffffffffffffffffffffffffffffffffffffff1673ffffffffffffffffffffffffffffffffffffffff1681526020019081526020016000208481548110613ec657fe5b9060005260206000209060070201600401879080600181540180825580915050906001820390600052602060002001600090919290919091509080519060200190613f12929190615435565b50506001945050505050613f28565b6000925050505b9392505050565b600060606040518060400160405280600581526020017f636c69636b00000000000000000000000000000000000000000000000000000081525090508534148015613ff95750600260003373ffffffffffffffffffffffffffffffffffffffff1673ffffffffffffffffffffffffffffffffffffffff1681526020019081526020016000205434600260003373ffffffffffffffffffffffffffffffffffffffff1673ffffffffffffffffffffffffffffffffffffffff1681526020019081526020016000205401115b801561400b575061400a8184612712565b5b61401457600080fd5b61401c6152bb565b838160000181905250848160200181905250868160400181815250508581606001818152505060018160a0019015159081151581525050868160c00181815250506140af34600260003373ffffffffffffffffffffffffffffffffffffffff1673ffffffffffffffffffffffffffffffffffffffff1681526020019081526020016000205461502790919063ffffffff16565b600260003373ffffffffffffffffffffffffffffffffffffffff1673ffffffffffffffffffffffffffffffffffffffff16815260200190815260200160002081905550600460003373ffffffffffffffffffffffffffffffffffffffff1673ffffffffffffffffffffffffffffffffffffffff168152602001908152602001600020819080600181540180825580915050906001820390600052602060002090600702016000909192909190915060008201518160000190805190602001906141799291906152fa565b5060208201518160010190805190602001906141969291906152fa565b50604082015181600201556060820151816003015560808201518160040190805190602001906141c792919061537a565b5060a08201518160050160006101000a81548160ff02191690831515021790555060c082015181600601555050507fb83300524d1eaaf4dca4282c965ac18c06b969522e3223401a1f1d047e3902a84286338a8a8960405180878152602001806020018673ffffffffffffffffffffffffffffffffffffffff1673ffffffffffffffffffffffffffffffffffffffff16815260200185815260200184815260200180602001838103835288818151815260200191508051906020019080838360005b838110156142a4578082015181840152602081019050614289565b50505050905090810190601f1680156142d15780820380516001836020036101000a031916815260200191505b50838103825284818151815260200191508051906020019080838360005b8381101561430a5780820151818401526020810190506142ef565b50505050905090810190601f1680156143375780820380516001836020036101000a031916815260200191505b509850505050505050505060405180910390a1600260003373ffffffffffffffffffffffffffffffffffffffff1673ffffffffffffffffffffffffffffffffffffffff1681526020019081526020016000205492505050949350505050565b60008060006143a585856129bd565b9150915060011515811515148015614429575060011515600460008773ffffffffffffffffffffffffffffffffffffffff1673ffffffffffffffffffffffffffffffffffffffff168152602001908152602001600020838154811061440657fe5b906000526020600020906007020160050160009054906101000a900460ff161515145b61443257600080fd5b600460008673ffffffffffffffffffffffffffffffffffffffff1673ffffffffffffffffffffffffffffffffffffffff168152602001908152602001600020828154811061447c57fe5b9060005260206000209060070201600601549250505092915050565b600080600460008473ffffffffffffffffffffffffffffffffffffffff1673ffffffffffffffffffffffffffffffffffffffff1681526020019081526020016000206000815481106144e657fe5b906000526020600020906007020160020154141561450357600080fd5b600460008373ffffffffffffffffffffffffffffffffffffffff1673ffffffffffffffffffffffffffffffffffffffff168152602001908152602001600020805490509050919050565b600080600061455c33856129bd565b91509150600115158115151480156145cf57506000600460003373ffffffffffffffffffffffffffffffffffffffff1673ffffffffffffffffffffffffffffffffffffffff16815260200190815260200160002083815481106145bb57fe5b906000526020600020906007020160060154115b801561461a57506000600260003373ffffffffffffffffffffffffffffffffffffffff1673ffffffffffffffffffffffffffffffffffffffff16815260200190815260200160002054115b80156146c05750600460003373ffffffffffffffffffffffffffffffffffffffff1673ffffffffffffffffffffffffffffffffffffffff168152602001908152602001600020828154811061466b57fe5b906000526020600020906007020160060154600260003373ffffffffffffffffffffffffffffffffffffffff1673ffffffffffffffffffffffffffffffffffffffff1681526020019081526020016000205410155b6146c957600080fd5b6000600460003373ffffffffffffffffffffffffffffffffffffffff1673ffffffffffffffffffffffffffffffffffffffff168152602001908152602001600020838154811061471557fe5b906000526020600020906007020160050160006101000a81548160ff0219169083151502179055506147ea600460003373ffffffffffffffffffffffffffffffffffffffff1673ffffffffffffffffffffffffffffffffffffffff168152602001908152602001600020838154811061478a57fe5b906000526020600020906007020160060154600260003373ffffffffffffffffffffffffffffffffffffffff1673ffffffffffffffffffffffffffffffffffffffff16815260200190815260200160002054614fdd90919063ffffffff16565b600260003373ffffffffffffffffffffffffffffffffffffffff1673ffffffffffffffffffffffffffffffffffffffff168152602001908152602001600020819055503373ffffffffffffffffffffffffffffffffffffffff166108fc600460003373ffffffffffffffffffffffffffffffffffffffff1673ffffffffffffffffffffffffffffffffffffffff168152602001908152602001600020848154811061489157fe5b9060005260206000209060070201600601549081150290604051600060405180830381858888f193505050501580156148ce573d6000803e3d6000fd5b506000600460003373ffffffffffffffffffffffffffffffffffffffff1673ffffffffffffffffffffffffffffffffffffffff168152602001908152602001600020838154811061491b57fe5b906000526020600020906007020160060181905550600260003373ffffffffffffffffffffffffffffffffffffffff1673ffffffffffffffffffffffffffffffffffffffff1681526020019081526020016000205492505050919050565b614981612cf9565b6149f3576040517f08c379a00000000000000000000000000000000000000000000000000000000081526004018080602001828103825260208152602001807f4f776e61626c653a2063616c6c6572206973206e6f7420746865206f776e657281525060200191505060405180910390fd5b6149fc816150b7565b50565b60006060600080614a1086866129bd565b9150915060011515811515148015614a8457506000600460008873ffffffffffffffffffffffffffffffffffffffff1673ffffffffffffffffffffffffffffffffffffffff1681526020019081526020016000208381548110614a6f57fe5b90600052602060002090600702016002015414155b614a8d57600080fd5b6060600460008873ffffffffffffffffffffffffffffffffffffffff1673ffffffffffffffffffffffffffffffffffffffff1681526020019081526020016000208381548110614ad957fe5b90600052602060002090600702016001018054600181600116156101000203166002900480601f016020809104026020016040519081016040528092919081815260200182805460018160011615610100020316600290048015614b7e5780601f10614b5357610100808354040283529160200191614b7e565b820191906000526020600020905b815481529060010190602001808311614b6157829003601f168201915b505050505090506060600460008973ffffffffffffffffffffffffffffffffffffffff1673ffffffffffffffffffffffffffffffffffffffff1681526020019081526020016000208481548110614bd157fe5b90600052602060002090600702016000018054600181600116156101000203166002900480601f016020809104026020016040519081016040528092919081815260200182805460018160011615610100020316600290048015614c765780601f10614c4b57610100808354040283529160200191614c76565b820191906000526020600020905b815481529060010190602001808311614c5957829003601f168201915b505050505090506060600460008a73ffffffffffffffffffffffffffffffffffffffff1673ffffffffffffffffffffffffffffffffffffffff1681526020019081526020016000208581548110614cc957fe5b906000526020600020906007020160040180549050604051908082528060200260200182016040528015614d0c5781602001602082028038833980820191505090505b5090506060600460008b73ffffffffffffffffffffffffffffffffffffffff1673ffffffffffffffffffffffffffffffffffffffff1681526020019081526020016000208681548110614d5b57fe5b9060005260206000209060070201600401805480602002602001604051908101604052809291908181526020016000905b82821015614e48578382906000526020600020018054600181600116156101000203166002900480601f016020809104026020016040519081016040528092919081815260200182805460018160011615610100020316600290048015614e345780601f10614e0957610100808354040283529160200191614e34565b820191906000526020600020905b815481529060010190602001808311614e1757829003601f168201915b505050505081526020019060010190614d8c565b50505050905060008090505b8151811015614f565760006001838381518110614e6d57fe5b60200260200101516040518082805190602001908083835b60208310614ea85780518252602082019150602081019050602083039250614e85565b6001836020036101000a038019825116818451168082178552505050505050905001915050908152602001604051809103902060000160009054906101000a900473ffffffffffffffffffffffffffffffffffffffff16905080848381518110614f0e57fe5b602002602001019073ffffffffffffffffffffffffffffffffffffffff16908173ffffffffffffffffffffffffffffffffffffffff1681525050508080600101915050614e54565b50600460008b73ffffffffffffffffffffffffffffffffffffffff1673ffffffffffffffffffffffffffffffffffffffff1681526020019081526020016000208681548110614fa157fe5b90600052602060002090600702016006015482975097505050505050509250929050565b60026020528060005260406000206000915090505481565b600061501f83836040518060400160405280601e81526020017f536166654d6174683a207375627472616374696f6e206f766572666c6f7700008152506151fb565b905092915050565b6000808284019050838110156150a5576040517f08c379a000000000000000000000000000000000000000000000000000000000815260040180806020018281038252601b8152602001807f536166654d6174683a206164646974696f6e206f766572666c6f77000000000081525060200191505060405180910390fd5b8091505092915050565b600033905090565b600073ffffffffffffffffffffffffffffffffffffffff168173ffffffffffffffffffffffffffffffffffffffff16141561513d576040517f08c379a000000000000000000000000000000000000000000000000000000000815260040180806020018281038252602681526020018061554f6026913960400191505060405180910390fd5b8073ffffffffffffffffffffffffffffffffffffffff166000809054906101000a900473ffffffffffffffffffffffffffffffffffffffff1673ffffffffffffffffffffffffffffffffffffffff167f8be0079c531659141344cd1fd0a4f28419497f9722a3daafe3b4186f6b6457e060405160405180910390a3806000806101000a81548173ffffffffffffffffffffffffffffffffffffffff021916908373ffffffffffffffffffffffffffffffffffffffff16021790555050565b60008383111582906152a8576040517f08c379a00000000000000000000000000000000000000000000000000000000081526004018080602001828103825283818151815260200191508051906020019080838360005b8381101561526d578082015181840152602081019050615252565b50505050905090810190601f16801561529a5780820380516001836020036101000a031916815260200191505b509250505060405180910390fd5b5060008385039050809150509392505050565b6040518060e001604052806060815260200160608152602001600081526020016000815260200160608152602001600015158152602001600081525090565b828054600181600116156101000203166002900490600052602060002090601f016020900481019282601f1061533b57805160ff1916838001178555615369565b82800160010185558215615369579182015b8281111561536857825182559160200191906001019061534d565b5b50905061537691906154b5565b5090565b8280548282559060005260206000209081019282156153c9579160200282015b828111156153c85782518290805190602001906153b89291906152fa565b509160200191906001019061539a565b5b5090506153d691906154da565b5090565b6040518060a00160405280600073ffffffffffffffffffffffffffffffffffffffff168152602001600073ffffffffffffffffffffffffffffffffffffffff1681526020016060815260200160008152602001606081525090565b828054600181600116156101000203166002900490600052602060002090601f016020900481019282601f1061547657805160ff19168380011785556154a4565b828001600101855582156154a4579182015b828111156154a3578251825591602001919060010190615488565b5b5090506154b191906154b5565b5090565b6154d791905b808211156154d35760008160009055506001016154bb565b5090565b90565b61550391905b808211156154ff57600081816154f69190615506565b506001016154e0565b5090565b90565b50805460018160011615610100020316600290046000825580601f1061552c575061554b565b601f01602090049060005260206000209081019061554a91906154b5565b5b5056fe4f776e61626c653a206e6577206f776e657220697320746865207a65726f2061646472657373a265627a7a723158201f3e5b9806cea4b17cfb16f66379af6cb77fc0cdb7f097d29a26bde039340cfb64736f6c63430005100032",
  "source": "pragma solidity ^0.5.16;\nimport \"../node_modules/@openzeppelin/contracts/ownership/Ownable.sol\";\nimport \"../node_modules/@openzeppelin/contracts/math/SafeMath.sol\";\n\ncontract CrowdlinkReferral is Ownable {\n    using SafeMath for uint256;\n\n    event NewPayPerClickCampaignOpen(\n        uint256 date,\n        string website,\n        address owner,\n        uint256 budget,\n        uint256 reward,\n        string campaignType\n    );\n    event NewPayPerSaleCampaignOpen(\n        uint256 date,\n        string website,\n        address owner,\n        uint256 budget,\n        string campaignType\n    );\n\n    struct Influencer {\n        address addr; //influencer public key\n        address owner_address; //referral campaign's owner address\n        string owner_website; // website to which the marketing URL is connected\n        uint256 reward; //influencer reward\n        string referral_link; //influencer referral link generated by the shilling company & our API\n    }\n\n    struct ReferralCampaign {\n        string campaignType;\n        string website;\n        uint256 campaignBudget;\n        uint256 campaignReward;\n        string[] referral_campaign_referral_links_list;\n        bool isActive;\n        uint256 remainingBudget;\n    }\n\n    mapping(string => Influencer) public influencers; // map referral_links to influencers -> one to one relationship\n    // mapping(address => uint256) public campaign_owner_balance; //referral campaign owner's balance\n    mapping(address => uint256) public campaign_owner_account_balance; //referral campaign owner's balance\n    mapping(address => uint256) public influencer_account_balance; //influencers' balance\n    mapping(address => ReferralCampaign[]) public referral_campaign_collection; //lists of referral campaigns associated to an address\n\n    function getBalanceOfLinkToInfluencer(string memory _link)\n        public\n        view\n        returns (uint256)\n    {\n        Influencer memory influencer_instance = influencers[_link];\n        address influencer_instance_address = influencer_instance.addr;\n        return influencer_account_balance[influencer_instance_address];\n    }\n\n    function getInfluencerBalance(address _addr) public view returns (uint256) {\n        return influencer_account_balance[_addr];\n    }\n\n    function getOwnerBalance(address _addr) public view returns (uint256) {\n        return campaign_owner_account_balance[_addr];\n    }\n\n    function addInfluencer(\n        string memory _website,\n        string memory _referral_link,\n        address _owner\n    ) public returns (bool) {\n        (\n            uint256 referral_campaign_indx,\n            bool found\n        ) = helper_selectReferralCampaign(_owner, _website);\n        //also check if it's still isActive\n\n        if (found) {\n\n                uint256 reward\n             = referral_campaign_collection[_owner][referral_campaign_indx]\n                .campaignReward;\n\n            Influencer memory influencer_instance;\n\n            influencer_instance.addr = msg.sender;\n            influencer_instance.owner_address = _owner;\n            influencer_instance.owner_website = _website;\n            influencer_instance.reward = reward;\n            influencer_instance.referral_link = _referral_link;\n\n            influencers[_referral_link] = influencer_instance;\n            referral_campaign_collection[_owner][referral_campaign_indx]\n                .referral_campaign_referral_links_list\n                .push(_referral_link);\n\n            return true;\n        } else {\n            return false;\n        }\n    }\n\n    function openPayPerClickReferralCampaign(\n        uint256 _campaignBudget,\n        uint256 _campaignReward,\n        string memory _website,\n        string memory _campaignType\n    ) public payable returns (uint256) {\n        string memory campaignType = \"click\";\n        require(\n            msg.value == _campaignBudget &&\n                (campaign_owner_account_balance[msg.sender] + msg.value) >\n                campaign_owner_account_balance[msg.sender] &&\n                helper_compareStrings(campaignType, _campaignType)\n        );\n\n        ReferralCampaign memory referral_campaign_instance;\n        referral_campaign_instance.campaignType = _campaignType;\n        referral_campaign_instance.website = _website;\n        referral_campaign_instance.campaignBudget = _campaignBudget;\n        referral_campaign_instance.campaignReward = _campaignReward;\n        referral_campaign_instance.isActive = true;\n        referral_campaign_instance.remainingBudget = _campaignBudget;\n\n        campaign_owner_account_balance[msg\n            .sender] = campaign_owner_account_balance[msg.sender].add(\n            msg.value\n        );\n        referral_campaign_collection[msg.sender].push(\n            referral_campaign_instance\n        );\n\n        emit NewPayPerClickCampaignOpen(\n            now,\n            _website,\n            msg.sender,\n            _campaignBudget,\n            _campaignReward,\n            _campaignType\n        );\n        return campaign_owner_account_balance[msg.sender];\n    }\n\n    function openPayPerSalekReferralCampaign(\n        uint256 _campaignBudget,\n        string memory _website,\n        string memory _campaignType\n    ) public payable returns (uint256) {\n        string memory campaignType = \"sale\";\n        require(\n            msg.value == _campaignBudget &&\n                (campaign_owner_account_balance[msg.sender] + msg.value) >\n                campaign_owner_account_balance[msg.sender] &&\n                helper_compareStrings(campaignType, _campaignType)\n        );\n\n        ReferralCampaign memory referral_campaign_instance;\n        referral_campaign_instance.campaignType = _campaignType;\n        referral_campaign_instance.website = _website;\n        referral_campaign_instance.campaignBudget = _campaignBudget;\n        referral_campaign_instance.campaignReward = 0;\n        referral_campaign_instance.isActive = true;\n        referral_campaign_instance.remainingBudget = _campaignBudget;\n\n        campaign_owner_account_balance[msg\n            .sender] = campaign_owner_account_balance[msg.sender].add(\n            msg.value\n        );\n        referral_campaign_collection[msg.sender].push(\n            referral_campaign_instance\n        );\n\n        emit NewPayPerSaleCampaignOpen(\n            now,\n            _website,\n            msg.sender,\n            _campaignBudget,\n            _campaignType\n        );\n        return campaign_owner_account_balance[msg.sender];\n    }\n\n    function forwardPayPerClickRewards(\n        string memory _referral_link,\n        string memory _website,\n        address _from,\n        address _to\n    )\n        public\n        onlyOwner()\n        returns (uint256 _campaign_owner_balance, uint256 _influencer_balance)\n    {\n        //add isOwner modifier\n        (\n            uint256 referral_campaign_indx,\n            bool found\n        ) = helper_selectReferralCampaign(_from, _website);\n\n        require(\n            found == true &&\n                campaign_owner_account_balance[_from] >\n                influencers[_referral_link].reward &&\n                referral_campaign_collection[_from][referral_campaign_indx]\n                    .isActive ==\n                true &&\n                (campaign_owner_account_balance[_from] -\n                    influencers[_referral_link].reward) <\n                campaign_owner_account_balance[_from]\n        );\n\n        if (\n            referral_campaign_collection[_from][referral_campaign_indx]\n                .remainingBudget > influencers[_referral_link].reward\n        ) {\n            referral_campaign_collection[_from][referral_campaign_indx]\n                .remainingBudget = referral_campaign_collection[_from][referral_campaign_indx]\n                .remainingBudget\n                .sub(influencers[_referral_link].reward);\n            campaign_owner_account_balance[_from] = campaign_owner_account_balance[_from]\n                .sub(influencers[_referral_link].reward);\n            influencer_account_balance[_to] = influencer_account_balance[_to]\n                .add(influencers[_referral_link].reward);\n\n            return (\n                campaign_owner_account_balance[_from],\n                influencer_account_balance[_to]\n            );\n        } else {\n            referral_campaign_collection[_from][referral_campaign_indx]\n                .isActive = false; //should you remove a campaign once it's not active anymore?\n            return (\n                campaign_owner_account_balance[_from],\n                influencer_account_balance[_to]\n            );\n        }\n    }\n\n    function forwardPayPerSaleRewards(\n        string memory _website,\n        address _from,\n        address _to,\n        uint256 _itemReward\n    )\n        public\n        onlyOwner()\n        returns (uint256 _campaign_owner_balance, uint256 _influencer_balance)\n    {\n        (\n            uint256 referral_campaign_indx,\n            bool found\n        ) = helper_selectReferralCampaign(_from, _website);\n\n        require(\n            found == true &&\n                campaign_owner_account_balance[_from] > _itemReward &&\n                referral_campaign_collection[_from][referral_campaign_indx]\n                    .isActive ==\n                true &&\n                (campaign_owner_account_balance[_from] - _itemReward) <\n                campaign_owner_account_balance[_from]\n        );\n\n        if (\n            referral_campaign_collection[_from][referral_campaign_indx]\n                .remainingBudget > _itemReward\n        ) {\n            referral_campaign_collection[_from][referral_campaign_indx]\n                .remainingBudget = referral_campaign_collection[_from][referral_campaign_indx]\n                .remainingBudget\n                .sub(_itemReward);\n            campaign_owner_account_balance[_from] = campaign_owner_account_balance[_from]\n                .sub(_itemReward);\n            influencer_account_balance[_to] = influencer_account_balance[_to]\n                .add(_itemReward);\n            return (\n                campaign_owner_account_balance[_from],\n                influencer_account_balance[_to]\n            );\n        } else {\n            referral_campaign_collection[_from][referral_campaign_indx]\n                .isActive = false; //should you remove a campaign once it's not active anymore?\n            return (\n                campaign_owner_account_balance[_from],\n                influencer_account_balance[_to]\n            );\n        }\n    }\n\n    function withdrawFromCampaign(string memory _website)\n        public\n        payable\n        returns (uint256)\n    {\n        (\n            uint256 referral_campaign_indx,\n            bool found\n        ) = helper_selectReferralCampaign(msg.sender, _website);\n\n        require(\n            found == true &&\n                referral_campaign_collection[msg.sender][referral_campaign_indx]\n                    .remainingBudget >\n                0 &&\n                campaign_owner_account_balance[msg.sender] > 0 &&\n                campaign_owner_account_balance[msg.sender] >=\n                referral_campaign_collection[msg.sender][referral_campaign_indx]\n                    .remainingBudget\n        );\n        referral_campaign_collection[msg.sender][referral_campaign_indx]\n            .isActive = false;\n        campaign_owner_account_balance[msg\n            .sender] = campaign_owner_account_balance[msg.sender].sub(\n            referral_campaign_collection[msg.sender][referral_campaign_indx]\n                .remainingBudget\n        );\n        msg.sender.transfer(\n            referral_campaign_collection[msg.sender][referral_campaign_indx]\n                .remainingBudget\n        );\n        referral_campaign_collection[msg.sender][referral_campaign_indx]\n            .remainingBudget = 0;\n\n        return campaign_owner_account_balance[msg.sender];\n    }\n\n    function influencerWithdraw() public payable returns (uint256) {\n        require(influencer_account_balance[msg.sender] > 0);\n        msg.sender.transfer(influencer_account_balance[msg.sender]);\n        influencer_account_balance[msg.sender] = 0;\n        return influencer_account_balance[msg.sender];\n    }\n\n    function lookupCampaignReferralsCollectionLength(address _account_address)\n        public\n        view\n        returns (uint256)\n    {\n        require(\n            referral_campaign_collection[_account_address][0].campaignBudget !=\n                0\n        );\n        return referral_campaign_collection[_account_address].length;\n    }\n\n    function lookUpCampaignReferral(address _account_address, uint256 _index)\n        public\n        view\n        returns (\n            string memory,\n            uint256,\n            uint256,\n            bool,\n            string memory,\n            address[] memory\n        )\n    {\n        require(\n            referral_campaign_collection[_account_address][_index]\n                .campaignBudget != 0\n        );\n\n            string memory campaign_referral_website\n         = referral_campaign_collection[_account_address][_index].website;\n\n            string memory camapaign_referral_type\n         = referral_campaign_collection[_account_address][_index].campaignType;\n\n\n            address[] memory referral_campaign_influencers_address_list\n         = new address[](\n            referral_campaign_collection[_account_address][_index]\n                .referral_campaign_referral_links_list\n                .length\n        ); //length of the array equal to length of the referral campaign's referral links array\n        for (\n            uint256 i = 0;\n            i <\n            referral_campaign_collection[_account_address][_index]\n                .referral_campaign_referral_links_list\n                .length;\n            i++\n        ) {\n\n                address influencer_addr\n             = influencers[referral_campaign_collection[_account_address][_index]\n                .referral_campaign_referral_links_list[i]]\n                .addr;\n            referral_campaign_influencers_address_list[i] = influencer_addr;\n        }\n\n        return (\n            campaign_referral_website,\n            referral_campaign_collection[_account_address][_index]\n                .campaignBudget,\n            referral_campaign_collection[_account_address][_index]\n                .campaignReward,\n            referral_campaign_collection[_account_address][_index].isActive,\n            camapaign_referral_type,\n            referral_campaign_influencers_address_list\n        );\n    }\n\n    function lookUpCampaignRemainingBudget(\n        address _address,\n        string memory _website\n    ) public view returns (uint256) {\n        (\n            uint256 referral_campaign_indx,\n            bool found\n        ) = helper_selectReferralCampaign(_address, _website);\n        require(\n            found == true &&\n                referral_campaign_collection[_address][referral_campaign_indx]\n                    .isActive ==\n                true\n        );\n        return\n            referral_campaign_collection[_address][referral_campaign_indx]\n                .remainingBudget;\n    }\n\n    function lookUpCampaignReferralByWebsite(\n        address _account_address,\n        string memory _website\n    ) public view returns (uint256, address[] memory) {\n        (uint256 _index, bool found) = helper_selectReferralCampaign(\n            _account_address,\n            _website\n        );\n        require(\n            found == true &&\n                referral_campaign_collection[_account_address][_index]\n                    .campaignBudget !=\n                0\n        );\n\n\n            string memory campaign_referral_website\n         = referral_campaign_collection[_account_address][_index].website;\n\n            string memory camapaign_referral_type\n         = referral_campaign_collection[_account_address][_index].campaignType;\n\n\n            address[] memory referral_campaign_influencers_address_list\n         = new address[](\n            referral_campaign_collection[_account_address][_index]\n                .referral_campaign_referral_links_list\n                .length\n        ); //length of the array equal to length of the referral campaign's referral links array\n\n            string[] memory short_urls_list\n         = referral_campaign_collection[_account_address][_index]\n            .referral_campaign_referral_links_list;\n\n        for (uint256 i = 0; i < short_urls_list.length; i++) {\n            address influencer_addr = influencers[short_urls_list[i]].addr;\n            referral_campaign_influencers_address_list[i] = influencer_addr;\n        }\n\n        return (\n            referral_campaign_collection[_account_address][_index]\n                .remainingBudget,\n            referral_campaign_influencers_address_list\n        );\n    }\n\n    function helper_selectReferralCampaign(\n        address _address,\n        string memory _website\n    ) public view returns (uint256, bool) {\n        uint256 indx = 0;\n        bool found = false;\n        for (\n            uint256 i = 0;\n            i < referral_campaign_collection[_address].length;\n            i++\n        ) {\n            string memory website = referral_campaign_collection[_address][i]\n                .website;\n            if (keccak256(bytes(website)) == keccak256(bytes(_website))) {\n                indx = i;\n                found = true;\n            }\n        }\n\n        return (indx, found);\n    }\n\n    function helper_compareStrings(string memory a, string memory b)\n        public\n        pure\n        returns (bool)\n    {\n        //probably should be internal\n        return (keccak256(abi.encodePacked(a)) ==\n            keccak256(abi.encodePacked(b)));\n    }\n}\n",
  "sourcePath": "/home/biosas/Desktop/hack-money-v1/contracts/CrowdlinkReferral.sol",
  "compiler": {
    "name": "solc",
    "version": "0.5.16+commit.9c3226ce.Emscripten.clang"
  },
  "schemaVersion": "3.0.23",
  "updatedAt": "2020-06-11T02:44:10.081Z",
  "networkType": "ethereum",
  "devdoc": {
    "methods": {
      "isOwner()": {
        "details": "Returns true if the caller is the current owner."
      },
      "owner()": {
        "details": "Returns the address of the current owner."
      },
      "renounceOwnership()": {
        "details": "Leaves the contract without owner. It will not be possible to call `onlyOwner` functions anymore. Can only be called by the current owner.     * NOTE: Renouncing ownership will leave the contract without an owner, thereby removing any functionality that is only available to the owner."
      },
      "transferOwnership(address)": {
        "details": "Transfers ownership of the contract to a new account (`newOwner`). Can only be called by the current owner."
      }
    }
  },
  "userdoc": {
    "methods": {}
  }
}